{
  "_format": "hh-sol-artifact-1",
  "contractName": "GovToken",
  "sourceName": "contracts/MyToken.sol",
  "abi": [
    {
      "inputs": [],
      "stateMutability": "nonpayable",
      "type": "constructor"
    },
    {
      "inputs": [],
      "name": "InvalidShortString",
      "type": "error"
    },
    {
      "inputs": [
        {
          "internalType": "string",
          "name": "str",
          "type": "string"
        }
      ],
      "name": "StringTooLong",
      "type": "error"
    },
    {
      "anonymous": false,
      "inputs": [
        {
          "indexed": true,
          "internalType": "address",
          "name": "owner",
          "type": "address"
        },
        {
          "indexed": true,
          "internalType": "address",
          "name": "spender",
          "type": "address"
        },
        {
          "indexed": false,
          "internalType": "uint256",
          "name": "value",
          "type": "uint256"
        }
      ],
      "name": "Approval",
      "type": "event"
    },
    {
      "anonymous": false,
      "inputs": [
        {
          "indexed": true,
          "internalType": "address",
          "name": "delegator",
          "type": "address"
        },
        {
          "indexed": true,
          "internalType": "address",
          "name": "fromDelegate",
          "type": "address"
        },
        {
          "indexed": true,
          "internalType": "address",
          "name": "toDelegate",
          "type": "address"
        }
      ],
      "name": "DelegateChanged",
      "type": "event"
    },
    {
      "anonymous": false,
      "inputs": [
        {
          "indexed": true,
          "internalType": "address",
          "name": "delegate",
          "type": "address"
        },
        {
          "indexed": false,
          "internalType": "uint256",
          "name": "previousBalance",
          "type": "uint256"
        },
        {
          "indexed": false,
          "internalType": "uint256",
          "name": "newBalance",
          "type": "uint256"
        }
      ],
      "name": "DelegateVotesChanged",
      "type": "event"
    },
    {
      "anonymous": false,
      "inputs": [],
      "name": "EIP712DomainChanged",
      "type": "event"
    },
    {
      "anonymous": false,
      "inputs": [
        {
          "indexed": true,
          "internalType": "address",
          "name": "from",
          "type": "address"
        },
        {
          "indexed": true,
          "internalType": "address",
          "name": "to",
          "type": "address"
        },
        {
          "indexed": false,
          "internalType": "uint256",
          "name": "value",
          "type": "uint256"
        }
      ],
      "name": "Transfer",
      "type": "event"
    },
    {
      "inputs": [],
      "name": "CLOCK_MODE",
      "outputs": [
        {
          "internalType": "string",
          "name": "",
          "type": "string"
        }
      ],
      "stateMutability": "view",
      "type": "function"
    },
    {
      "inputs": [],
      "name": "DOMAIN_SEPARATOR",
      "outputs": [
        {
          "internalType": "bytes32",
          "name": "",
          "type": "bytes32"
        }
      ],
      "stateMutability": "view",
      "type": "function"
    },
    {
      "inputs": [
        {
          "internalType": "address",
          "name": "owner",
          "type": "address"
        },
        {
          "internalType": "address",
          "name": "spender",
          "type": "address"
        }
      ],
      "name": "allowance",
      "outputs": [
        {
          "internalType": "uint256",
          "name": "",
          "type": "uint256"
        }
      ],
      "stateMutability": "view",
      "type": "function"
    },
    {
      "inputs": [
        {
          "internalType": "address",
          "name": "spender",
          "type": "address"
        },
        {
          "internalType": "uint256",
          "name": "amount",
          "type": "uint256"
        }
      ],
      "name": "approve",
      "outputs": [
        {
          "internalType": "bool",
          "name": "",
          "type": "bool"
        }
      ],
      "stateMutability": "nonpayable",
      "type": "function"
    },
    {
      "inputs": [
        {
          "internalType": "address",
          "name": "account",
          "type": "address"
        }
      ],
      "name": "balanceOf",
      "outputs": [
        {
          "internalType": "uint256",
          "name": "",
          "type": "uint256"
        }
      ],
      "stateMutability": "view",
      "type": "function"
    },
    {
      "inputs": [
        {
          "internalType": "address",
          "name": "account",
          "type": "address"
        },
        {
          "internalType": "uint32",
          "name": "pos",
          "type": "uint32"
        }
      ],
      "name": "checkpoints",
      "outputs": [
        {
          "components": [
            {
              "internalType": "uint32",
              "name": "fromBlock",
              "type": "uint32"
            },
            {
              "internalType": "uint224",
              "name": "votes",
              "type": "uint224"
            }
          ],
          "internalType": "struct ERC20Votes.Checkpoint",
          "name": "",
          "type": "tuple"
        }
      ],
      "stateMutability": "view",
      "type": "function"
    },
    {
      "inputs": [],
      "name": "clock",
      "outputs": [
        {
          "internalType": "uint48",
          "name": "",
          "type": "uint48"
        }
      ],
      "stateMutability": "view",
      "type": "function"
    },
    {
      "inputs": [],
      "name": "decimals",
      "outputs": [
        {
          "internalType": "uint8",
          "name": "",
          "type": "uint8"
        }
      ],
      "stateMutability": "view",
      "type": "function"
    },
    {
      "inputs": [
        {
          "internalType": "address",
          "name": "spender",
          "type": "address"
        },
        {
          "internalType": "uint256",
          "name": "subtractedValue",
          "type": "uint256"
        }
      ],
      "name": "decreaseAllowance",
      "outputs": [
        {
          "internalType": "bool",
          "name": "",
          "type": "bool"
        }
      ],
      "stateMutability": "nonpayable",
      "type": "function"
    },
    {
      "inputs": [
        {
          "internalType": "address",
          "name": "delegatee",
          "type": "address"
        }
      ],
      "name": "delegate",
      "outputs": [],
      "stateMutability": "nonpayable",
      "type": "function"
    },
    {
      "inputs": [
        {
          "internalType": "address",
          "name": "delegatee",
          "type": "address"
        },
        {
          "internalType": "uint256",
          "name": "nonce",
          "type": "uint256"
        },
        {
          "internalType": "uint256",
          "name": "expiry",
          "type": "uint256"
        },
        {
          "internalType": "uint8",
          "name": "v",
          "type": "uint8"
        },
        {
          "internalType": "bytes32",
          "name": "r",
          "type": "bytes32"
        },
        {
          "internalType": "bytes32",
          "name": "s",
          "type": "bytes32"
        }
      ],
      "name": "delegateBySig",
      "outputs": [],
      "stateMutability": "nonpayable",
      "type": "function"
    },
    {
      "inputs": [
        {
          "internalType": "address",
          "name": "account",
          "type": "address"
        }
      ],
      "name": "delegates",
      "outputs": [
        {
          "internalType": "address",
          "name": "",
          "type": "address"
        }
      ],
      "stateMutability": "view",
      "type": "function"
    },
    {
      "inputs": [],
      "name": "eip712Domain",
      "outputs": [
        {
          "internalType": "bytes1",
          "name": "fields",
          "type": "bytes1"
        },
        {
          "internalType": "string",
          "name": "name",
          "type": "string"
        },
        {
          "internalType": "string",
          "name": "version",
          "type": "string"
        },
        {
          "internalType": "uint256",
          "name": "chainId",
          "type": "uint256"
        },
        {
          "internalType": "address",
          "name": "verifyingContract",
          "type": "address"
        },
        {
          "internalType": "bytes32",
          "name": "salt",
          "type": "bytes32"
        },
        {
          "internalType": "uint256[]",
          "name": "extensions",
          "type": "uint256[]"
        }
      ],
      "stateMutability": "view",
      "type": "function"
    },
    {
      "inputs": [
        {
          "internalType": "uint256",
          "name": "timepoint",
          "type": "uint256"
        }
      ],
      "name": "getPastTotalSupply",
      "outputs": [
        {
          "internalType": "uint256",
          "name": "",
          "type": "uint256"
        }
      ],
      "stateMutability": "view",
      "type": "function"
    },
    {
      "inputs": [
        {
          "internalType": "address",
          "name": "account",
          "type": "address"
        },
        {
          "internalType": "uint256",
          "name": "timepoint",
          "type": "uint256"
        }
      ],
      "name": "getPastVotes",
      "outputs": [
        {
          "internalType": "uint256",
          "name": "",
          "type": "uint256"
        }
      ],
      "stateMutability": "view",
      "type": "function"
    },
    {
      "inputs": [
        {
          "internalType": "address",
          "name": "account",
          "type": "address"
        }
      ],
      "name": "getVotes",
      "outputs": [
        {
          "internalType": "uint256",
          "name": "",
          "type": "uint256"
        }
      ],
      "stateMutability": "view",
      "type": "function"
    },
    {
      "inputs": [
        {
          "internalType": "address",
          "name": "spender",
          "type": "address"
        },
        {
          "internalType": "uint256",
          "name": "addedValue",
          "type": "uint256"
        }
      ],
      "name": "increaseAllowance",
      "outputs": [
        {
          "internalType": "bool",
          "name": "",
          "type": "bool"
        }
      ],
      "stateMutability": "nonpayable",
      "type": "function"
    },
    {
      "inputs": [],
      "name": "name",
      "outputs": [
        {
          "internalType": "string",
          "name": "",
          "type": "string"
        }
      ],
      "stateMutability": "view",
      "type": "function"
    },
    {
      "inputs": [
        {
          "internalType": "address",
          "name": "owner",
          "type": "address"
        }
      ],
      "name": "nonces",
      "outputs": [
        {
          "internalType": "uint256",
          "name": "",
          "type": "uint256"
        }
      ],
      "stateMutability": "view",
      "type": "function"
    },
    {
      "inputs": [
        {
          "internalType": "address",
          "name": "account",
          "type": "address"
        }
      ],
      "name": "numCheckpoints",
      "outputs": [
        {
          "internalType": "uint32",
          "name": "",
          "type": "uint32"
        }
      ],
      "stateMutability": "view",
      "type": "function"
    },
    {
      "inputs": [
        {
          "internalType": "address",
          "name": "owner",
          "type": "address"
        },
        {
          "internalType": "address",
          "name": "spender",
          "type": "address"
        },
        {
          "internalType": "uint256",
          "name": "value",
          "type": "uint256"
        },
        {
          "internalType": "uint256",
          "name": "deadline",
          "type": "uint256"
        },
        {
          "internalType": "uint8",
          "name": "v",
          "type": "uint8"
        },
        {
          "internalType": "bytes32",
          "name": "r",
          "type": "bytes32"
        },
        {
          "internalType": "bytes32",
          "name": "s",
          "type": "bytes32"
        }
      ],
      "name": "permit",
      "outputs": [],
      "stateMutability": "nonpayable",
      "type": "function"
    },
    {
      "inputs": [],
      "name": "symbol",
      "outputs": [
        {
          "internalType": "string",
          "name": "",
          "type": "string"
        }
      ],
      "stateMutability": "view",
      "type": "function"
    },
    {
      "inputs": [],
      "name": "totalSupply",
      "outputs": [
        {
          "internalType": "uint256",
          "name": "",
          "type": "uint256"
        }
      ],
      "stateMutability": "view",
      "type": "function"
    },
    {
      "inputs": [
        {
          "internalType": "address",
          "name": "to",
          "type": "address"
        },
        {
          "internalType": "uint256",
          "name": "amount",
          "type": "uint256"
        }
      ],
      "name": "transfer",
      "outputs": [
        {
          "internalType": "bool",
          "name": "",
          "type": "bool"
        }
      ],
      "stateMutability": "nonpayable",
      "type": "function"
    },
    {
      "inputs": [
        {
          "internalType": "address",
          "name": "from",
          "type": "address"
        },
        {
          "internalType": "address",
          "name": "to",
          "type": "address"
        },
        {
          "internalType": "uint256",
          "name": "amount",
          "type": "uint256"
        }
      ],
      "name": "transferFrom",
      "outputs": [
        {
          "internalType": "bool",
          "name": "",
          "type": "bool"
        }
      ],
      "stateMutability": "nonpayable",
      "type": "function"
    }
  ],
  "bytecode": "0x6101606040523480156200001257600080fd5b506040518060400160405280600881526020017f476f76546f6b656e000000000000000000000000000000000000000000000000815250806040518060400160405280600181526020017f31000000000000000000000000000000000000000000000000000000000000008152506040518060400160405280600881526020017f476f76546f6b656e0000000000000000000000000000000000000000000000008152506040518060400160405280600381526020017f47565400000000000000000000000000000000000000000000000000000000008152508160039081620000fd919062000f7a565b5080600490816200010f919062000f7a565b505050620001286005836200020760201b90919060201c565b6101208181525050620001466006826200020760201b90919060201c565b6101408181525050818051906020012060e08181525050808051906020012061010081815250504660a08181525050620001856200025f60201b60201c565b608081815250503073ffffffffffffffffffffffffffffffffffffffff1660c08173ffffffffffffffffffffffffffffffffffffffff16815250505050506200020133620001d8620002bc60201b60201c565b600a620001e69190620011f1565b6103e8620001f5919062001242565b620002c560201b60201c565b62001842565b60006020835110156200022d5762000225836200037e60201b60201c565b905062000259565b826200023f83620003eb60201b60201c565b600001908162000250919062000f7a565b5060ff60001b90505b92915050565b60007f8b73c3c69bb8fe3d512ecc4cf759cc79239f7b179b0ffacaa9a75d522b39400f60e051610100514630604051602001620002a1959493929190620012fe565b60405160208183030381529060405280519060200120905090565b60006012905090565b620002d78282620003f560201b60201c565b620002e76200056260201b60201c565b7bffffffffffffffffffffffffffffffffffffffffffffffffffffffff16620003156200058660201b60201c565b111562000359576040517f08c379a00000000000000000000000000000000000000000000000000000000081526004016200035090620013e2565b60405180910390fd5b62000378600b6200059060201b620010c11783620005a860201b60201c565b50505050565b600080829050601f81511115620003ce57826040517f305a27a9000000000000000000000000000000000000000000000000000000008152600401620003c5919062001482565b60405180910390fd5b805181620003dc90620014d8565b60001c1760001b915050919050565b6000819050919050565b600073ffffffffffffffffffffffffffffffffffffffff168273ffffffffffffffffffffffffffffffffffffffff160362000467576040517f08c379a00000000000000000000000000000000000000000000000000000000081526004016200045e9062001598565b60405180910390fd5b6200047b60008383620008be60201b60201c565b80600260008282546200048f9190620015ba565b92505081905550806000808473ffffffffffffffffffffffffffffffffffffffff1673ffffffffffffffffffffffffffffffffffffffff168152602001908152602001600020600082825401925050819055508173ffffffffffffffffffffffffffffffffffffffff16600073ffffffffffffffffffffffffffffffffffffffff167fddf252ad1be2c89b69c2b068fc378daa952ba7f163c4a11628f55a4df523b3ef83604051620005429190620015f5565b60405180910390a36200055e60008383620008c360201b60201c565b5050565b60007bffffffffffffffffffffffffffffffffffffffffffffffffffffffff905090565b6000600254905090565b60008183620005a09190620015ba565b905092915050565b60008060008580549050905060008082146200067857620005d387600184036200090e60201b60201c565b6040518060400160405290816000820160009054906101000a900463ffffffff1663ffffffff1663ffffffff1681526020016000820160049054906101000a90047bffffffffffffffffffffffffffffffffffffffffffffffffffffffff167bffffffffffffffffffffffffffffffffffffffffffffffffffffffff167bffffffffffffffffffffffffffffffffffffffffffffffffffffffff1681525050620006b4565b6040518060400160405280600063ffffffff16815260200160007bffffffffffffffffffffffffffffffffffffffffffffffffffffffff168152505b905080602001517bffffffffffffffffffffffffffffffffffffffffffffffffffffffff169350620006e784868860201c565b92506000821180156200071a5750620007056200092360201b60201c565b65ffffffffffff16816000015163ffffffff16145b156200079d5762000731836200093b60201b60201c565b6200074688600185036200090e60201b60201c565b60000160046101000a8154817bffffffffffffffffffffffffffffffffffffffffffffffffffffffff02191690837bffffffffffffffffffffffffffffffffffffffffffffffffffffffff160217905550620008b4565b866040518060400160405280620007d1620007bd6200092360201b60201c565b65ffffffffffff16620009a960201b60201c565b63ffffffff168152602001620007ed866200093b60201b60201c565b7bffffffffffffffffffffffffffffffffffffffffffffffffffffffff168152509080600181540180825580915050600190039060005260206000200160009091909190915060008201518160000160006101000a81548163ffffffff021916908363ffffffff16021790555060208201518160000160046101000a8154817bffffffffffffffffffffffffffffffffffffffffffffffffffffffff02191690837bffffffffffffffffffffffffffffffffffffffffffffffffffffffff16021790555050505b5050935093915050565b505050565b620008d6838383620009ff60201b60201c565b62000909620008eb8462000a0460201b60201c565b620008fc8462000a0460201b60201c565b8362000a6d60201b60201c565b505050565b60008260005281602060002001905092915050565b6000620009364362000c9060201b60201c565b905090565b60007bffffffffffffffffffffffffffffffffffffffffffffffffffffffff8016821115620009a1576040517f08c379a0000000000000000000000000000000000000000000000000000000008152600401620009989062001688565b60405180910390fd5b819050919050565b600063ffffffff8016821115620009f7576040517f08c379a0000000000000000000000000000000000000000000000000000000008152600401620009ee9062001720565b60405180910390fd5b819050919050565b505050565b6000600960008373ffffffffffffffffffffffffffffffffffffffff1673ffffffffffffffffffffffffffffffffffffffff16815260200190815260200160002060009054906101000a900473ffffffffffffffffffffffffffffffffffffffff169050919050565b8173ffffffffffffffffffffffffffffffffffffffff168373ffffffffffffffffffffffffffffffffffffffff161415801562000aaa5750600081115b1562000c8b57600073ffffffffffffffffffffffffffffffffffffffff168373ffffffffffffffffffffffffffffffffffffffff161462000b9d5760008062000b44600a60008773ffffffffffffffffffffffffffffffffffffffff1673ffffffffffffffffffffffffffffffffffffffff16815260200190815260200160002062000ce860201b620010d71785620005a860201b60201c565b915091508473ffffffffffffffffffffffffffffffffffffffff167fdec2bacdd2f05b59de34da9b523dff8be42e5e38e818c82fdb0bae774387a724838360405162000b9292919062001742565b60405180910390a250505b600073ffffffffffffffffffffffffffffffffffffffff168273ffffffffffffffffffffffffffffffffffffffff161462000c8a5760008062000c31600a60008673ffffffffffffffffffffffffffffffffffffffff1673ffffffffffffffffffffffffffffffffffffffff1681526020019081526020016000206200059060201b620010c11785620005a860201b60201c565b915091508373ffffffffffffffffffffffffffffffffffffffff167fdec2bacdd2f05b59de34da9b523dff8be42e5e38e818c82fdb0bae774387a724838360405162000c7f92919062001742565b60405180910390a250505b5b505050565b600065ffffffffffff801682111562000ce0576040517f08c379a000000000000000000000000000000000000000000000000000000000815260040162000cd790620017e5565b60405180910390fd5b819050919050565b6000818362000cf8919062001807565b905092915050565b600081519050919050565b7f4e487b7100000000000000000000000000000000000000000000000000000000600052604160045260246000fd5b7f4e487b7100000000000000000000000000000000000000000000000000000000600052602260045260246000fd5b6000600282049050600182168062000d8257607f821691505b60208210810362000d985762000d9762000d3a565b5b50919050565b60008190508160005260206000209050919050565b60006020601f8301049050919050565b600082821b905092915050565b60006008830262000e027fffffffffffffffffffffffffffffffffffffffffffffffffffffffffffffffff8262000dc3565b62000e0e868362000dc3565b95508019841693508086168417925050509392505050565b6000819050919050565b6000819050919050565b600062000e5b62000e5562000e4f8462000e26565b62000e30565b62000e26565b9050919050565b6000819050919050565b62000e778362000e3a565b62000e8f62000e868262000e62565b84845462000dd0565b825550505050565b600090565b62000ea662000e97565b62000eb381848462000e6c565b505050565b5b8181101562000edb5762000ecf60008262000e9c565b60018101905062000eb9565b5050565b601f82111562000f2a5762000ef48162000d9e565b62000eff8462000db3565b8101602085101562000f0f578190505b62000f2762000f1e8562000db3565b83018262000eb8565b50505b505050565b600082821c905092915050565b600062000f4f6000198460080262000f2f565b1980831691505092915050565b600062000f6a838362000f3c565b9150826002028217905092915050565b62000f858262000d00565b67ffffffffffffffff81111562000fa15762000fa062000d0b565b5b62000fad825462000d69565b62000fba82828562000edf565b600060209050601f83116001811462000ff2576000841562000fdd578287015190505b62000fe9858262000f5c565b86555062001059565b601f198416620010028662000d9e565b60005b828110156200102c5784890151825560018201915060208501945060208101905062001005565b868310156200104c578489015162001048601f89168262000f3c565b8355505b6001600288020188555050505b505050505050565b7f4e487b7100000000000000000000000000000000000000000000000000000000600052601160045260246000fd5b60008160011c9050919050565b6000808291508390505b6001851115620010ef57808604811115620010c757620010c662001061565b5b6001851615620010d75780820291505b8081029050620010e78562001090565b9450620010a7565b94509492505050565b6000826200110a5760019050620011dd565b816200111a5760009050620011dd565b81600181146200113357600281146200113e5762001174565b6001915050620011dd565b60ff84111562001153576200115262001061565b5b8360020a9150848211156200116d576200116c62001061565b5b50620011dd565b5060208310610133831016604e8410600b8410161715620011ae5782820a905083811115620011a857620011a762001061565b5b620011dd565b620011bd84848460016200109d565b92509050818404811115620011d757620011d662001061565b5b81810290505b9392505050565b600060ff82169050919050565b6000620011fe8262000e26565b91506200120b83620011e4565b92506200123a7fffffffffffffffffffffffffffffffffffffffffffffffffffffffffffffffff8484620010f8565b905092915050565b60006200124f8262000e26565b91506200125c8362000e26565b92508282026200126c8162000e26565b9150828204841483151762001286576200128562001061565b5b5092915050565b6000819050919050565b620012a2816200128d565b82525050565b620012b38162000e26565b82525050565b600073ffffffffffffffffffffffffffffffffffffffff82169050919050565b6000620012e682620012b9565b9050919050565b620012f881620012d9565b82525050565b600060a08201905062001315600083018862001297565b62001324602083018762001297565b62001333604083018662001297565b620013426060830185620012a8565b620013516080830184620012ed565b9695505050505050565b600082825260208201905092915050565b7f4552433230566f7465733a20746f74616c20737570706c79207269736b73206f60008201527f766572666c6f77696e6720766f74657300000000000000000000000000000000602082015250565b6000620013ca6030836200135b565b9150620013d7826200136c565b604082019050919050565b60006020820190508181036000830152620013fd81620013bb565b9050919050565b60005b838110156200142457808201518184015260208101905062001407565b60008484015250505050565b6000601f19601f8301169050919050565b60006200144e8262000d00565b6200145a81856200135b565b93506200146c81856020860162001404565b620014778162001430565b840191505092915050565b600060208201905081810360008301526200149e818462001441565b905092915050565b600081519050919050565b6000819050602082019050919050565b6000620014cf82516200128d565b80915050919050565b6000620014e582620014a6565b82620014f184620014b1565b9050620014fe81620014c1565b9250602082101562001541576200153c7fffffffffffffffffffffffffffffffffffffffffffffffffffffffffffffffff8360200360080262000dc3565b831692505b5050919050565b7f45524332303a206d696e7420746f20746865207a65726f206164647265737300600082015250565b600062001580601f836200135b565b91506200158d8262001548565b602082019050919050565b60006020820190508181036000830152620015b38162001571565b9050919050565b6000620015c78262000e26565b9150620015d48362000e26565b9250828201905080821115620015ef57620015ee62001061565b5b92915050565b60006020820190506200160c6000830184620012a8565b92915050565b7f53616665436173743a2076616c756520646f65736e27742066697420696e203260008201527f3234206269747300000000000000000000000000000000000000000000000000602082015250565b6000620016706027836200135b565b91506200167d8262001612565b604082019050919050565b60006020820190508181036000830152620016a38162001661565b9050919050565b7f53616665436173743a2076616c756520646f65736e27742066697420696e203360008201527f3220626974730000000000000000000000000000000000000000000000000000602082015250565b6000620017086026836200135b565b91506200171582620016aa565b604082019050919050565b600060208201905081810360008301526200173b81620016f9565b9050919050565b6000604082019050620017596000830185620012a8565b620017686020830184620012a8565b9392505050565b7f53616665436173743a2076616c756520646f65736e27742066697420696e203460008201527f3820626974730000000000000000000000000000000000000000000000000000602082015250565b6000620017cd6026836200135b565b9150620017da826200176f565b604082019050919050565b600060208201905081810360008301526200180081620017be565b9050919050565b6000620018148262000e26565b9150620018218362000e26565b92508282039050818111156200183c576200183b62001061565b5b92915050565b60805160a05160c05160e051610100516101205161014051613b9f6200189d60003960006109800152600061094c01526000611b5801526000611b37015260006115c40152600061161a015260006116430152613b9f6000f3fe608060405234801561001057600080fd5b50600436106101735760003560e01c806370a08231116100de5780639ab24eb011610097578063c3cda52011610071578063c3cda520146104ca578063d505accf146104e6578063dd62ed3e14610502578063f1127ed81461053257610173565b80639ab24eb01461043a578063a457c2d71461046a578063a9059cbb1461049a57610173565b806370a082311461034a5780637ecebe001461037a57806384b0196e146103aa5780638e539e8c146103ce57806391ddadf4146103fe57806395d89b411461041c57610173565b8063395093511161013057806339509351146102505780633a46b1a8146102805780634bf5d7e9146102b0578063587cde1e146102ce5780635c19a95c146102fe5780636fcfff451461031a57610173565b806306fdde0314610178578063095ea7b31461019657806318160ddd146101c657806323b872dd146101e4578063313ce567146102145780633644e51514610232575b600080fd5b610180610562565b60405161018d919061274b565b60405180910390f35b6101b060048036038101906101ab9190612806565b6105f4565b6040516101bd9190612861565b60405180910390f35b6101ce610617565b6040516101db919061288b565b60405180910390f35b6101fe60048036038101906101f991906128a6565b610621565b60405161020b9190612861565b60405180910390f35b61021c610650565b6040516102299190612915565b60405180910390f35b61023a610659565b6040516102479190612949565b60405180910390f35b61026a60048036038101906102659190612806565b610668565b6040516102779190612861565b60405180910390f35b61029a60048036038101906102959190612806565b61069f565b6040516102a7919061288b565b60405180910390f35b6102b8610742565b6040516102c5919061274b565b60405180910390f35b6102e860048036038101906102e39190612964565b6107d0565b6040516102f591906129a0565b60405180910390f35b61031860048036038101906103139190612964565b610839565b005b610334600480360381019061032f9190612964565b61084d565b60405161034191906129da565b60405180910390f35b610364600480360381019061035f9190612964565b6108a1565b604051610371919061288b565b60405180910390f35b610394600480360381019061038f9190612964565b6108e9565b6040516103a1919061288b565b60405180910390f35b6103b2610939565b6040516103c59796959493929190612aee565b60405180910390f35b6103e860048036038101906103e39190612b72565b610a3b565b6040516103f5919061288b565b60405180910390f35b610406610aa0565b6040516104139190612bc0565b60405180910390f35b610424610ab0565b604051610431919061274b565b60405180910390f35b610454600480360381019061044f9190612964565b610b42565b604051610461919061288b565b60405180910390f35b610484600480360381019061047f9190612806565b610c4a565b6040516104919190612861565b60405180910390f35b6104b460048036038101906104af9190612806565b610cc1565b6040516104c19190612861565b60405180910390f35b6104e460048036038101906104df9190612c33565b610ce4565b005b61050060048036038101906104fb9190612cc0565b610de8565b005b61051c60048036038101906105179190612d62565b610f2a565b604051610529919061288b565b60405180910390f35b61054c60048036038101906105479190612dce565b610fb1565b6040516105599190612e83565b60405180910390f35b60606003805461057190612ecd565b80601f016020809104026020016040519081016040528092919081815260200182805461059d90612ecd565b80156105ea5780601f106105bf576101008083540402835291602001916105ea565b820191906000526020600020905b8154815290600101906020018083116105cd57829003601f168201915b5050505050905090565b6000806105ff6110ed565b905061060c8185856110f5565b600191505092915050565b6000600254905090565b60008061062c6110ed565b90506106398582856112be565b61064485858561134a565b60019150509392505050565b60006012905090565b60006106636115c0565b905090565b6000806106736110ed565b90506106948185856106858589610f2a565b61068f9190612f2d565b6110f5565b600191505092915050565b60006106a9610aa0565b65ffffffffffff1682106106f2576040517f08c379a00000000000000000000000000000000000000000000000000000000081526004016106e990612fad565b60405180910390fd5b61073a600a60008573ffffffffffffffffffffffffffffffffffffffff1673ffffffffffffffffffffffffffffffffffffffff16815260200190815260200160002083611677565b905092915050565b60604361074d610aa0565b65ffffffffffff1614610795576040517f08c379a000000000000000000000000000000000000000000000000000000000815260040161078c90613019565b60405180910390fd5b6040518060400160405280601d81526020017f6d6f64653d626c6f636b6e756d6265722666726f6d3d64656661756c74000000815250905090565b6000600960008373ffffffffffffffffffffffffffffffffffffffff1673ffffffffffffffffffffffffffffffffffffffff16815260200190815260200160002060009054906101000a900473ffffffffffffffffffffffffffffffffffffffff169050919050565b61084a6108446110ed565b826117bf565b50565b600061089a600a60008473ffffffffffffffffffffffffffffffffffffffff1673ffffffffffffffffffffffffffffffffffffffff168152602001908152602001600020805490506118d9565b9050919050565b60008060008373ffffffffffffffffffffffffffffffffffffffff1673ffffffffffffffffffffffffffffffffffffffff168152602001908152602001600020549050919050565b6000610932600760008473ffffffffffffffffffffffffffffffffffffffff1673ffffffffffffffffffffffffffffffffffffffff16815260200190815260200160002061192c565b9050919050565b60006060806000806000606061097960057f000000000000000000000000000000000000000000000000000000000000000061193a90919063ffffffff16565b6109ad60067f000000000000000000000000000000000000000000000000000000000000000061193a90919063ffffffff16565b46306000801b600067ffffffffffffffff8111156109ce576109cd613039565b5b6040519080825280602002602001820160405280156109fc5781602001602082028036833780820191505090505b507f0f00000000000000000000000000000000000000000000000000000000000000959493929190965096509650965096509650965090919293949596565b6000610a45610aa0565b65ffffffffffff168210610a8e576040517f08c379a0000000000000000000000000000000000000000000000000000000008152600401610a8590612fad565b60405180910390fd5b610a99600b83611677565b9050919050565b6000610aab436119ea565b905090565b606060048054610abf90612ecd565b80601f0160208091040260200160405190810160405280929190818152602001828054610aeb90612ecd565b8015610b385780601f10610b0d57610100808354040283529160200191610b38565b820191906000526020600020905b815481529060010190602001808311610b1b57829003601f168201915b5050505050905090565b600080600a60008473ffffffffffffffffffffffffffffffffffffffff1673ffffffffffffffffffffffffffffffffffffffff16815260200190815260200160002080549050905060008114610c2157600a60008473ffffffffffffffffffffffffffffffffffffffff1673ffffffffffffffffffffffffffffffffffffffff1681526020019081526020016000206001820381548110610be657610be5613068565b5b9060005260206000200160000160049054906101000a90047bffffffffffffffffffffffffffffffffffffffffffffffffffffffff16610c24565b60005b7bffffffffffffffffffffffffffffffffffffffffffffffffffffffff16915050919050565b600080610c556110ed565b90506000610c638286610f2a565b905083811015610ca8576040517f08c379a0000000000000000000000000000000000000000000000000000000008152600401610c9f90613109565b60405180910390fd5b610cb582868684036110f5565b60019250505092915050565b600080610ccc6110ed565b9050610cd981858561134a565b600191505092915050565b83421115610d27576040517f08c379a0000000000000000000000000000000000000000000000000000000008152600401610d1e90613175565b60405180910390fd5b6000610d89610d817fe48329057bfd03d55e49b547132e39cffd9c1820ad7b9d4c5307691425d15adf898989604051602001610d669493929190613195565b60405160208183030381529060405280519060200120611a3f565b858585611a59565b9050610d9481611a84565b8614610dd5576040517f08c379a0000000000000000000000000000000000000000000000000000000008152600401610dcc90613226565b60405180910390fd5b610ddf81886117bf565b50505050505050565b83421115610e2b576040517f08c379a0000000000000000000000000000000000000000000000000000000008152600401610e2290613292565b60405180910390fd5b60007f6e71edae12b1b97f4d1f60370fef10105fa2faae0126114a169c64845d6126c9888888610e5a8c611a84565b89604051602001610e70969594939291906132b2565b6040516020818303038152906040528051906020012090506000610e9382611a3f565b90506000610ea382878787611a59565b90508973ffffffffffffffffffffffffffffffffffffffff168173ffffffffffffffffffffffffffffffffffffffff1614610f13576040517f08c379a0000000000000000000000000000000000000000000000000000000008152600401610f0a9061335f565b60405180910390fd5b610f1e8a8a8a6110f5565b50505050505050505050565b6000600160008473ffffffffffffffffffffffffffffffffffffffff1673ffffffffffffffffffffffffffffffffffffffff16815260200190815260200160002060008373ffffffffffffffffffffffffffffffffffffffff1673ffffffffffffffffffffffffffffffffffffffff16815260200190815260200160002054905092915050565b610fb961267d565b600a60008473ffffffffffffffffffffffffffffffffffffffff1673ffffffffffffffffffffffffffffffffffffffff1681526020019081526020016000208263ffffffff16815481106110105761100f613068565b5b906000526020600020016040518060400160405290816000820160009054906101000a900463ffffffff1663ffffffff1663ffffffff1681526020016000820160049054906101000a90047bffffffffffffffffffffffffffffffffffffffffffffffffffffffff167bffffffffffffffffffffffffffffffffffffffffffffffffffffffff167bffffffffffffffffffffffffffffffffffffffffffffffffffffffff1681525050905092915050565b600081836110cf9190612f2d565b905092915050565b600081836110e5919061337f565b905092915050565b600033905090565b600073ffffffffffffffffffffffffffffffffffffffff168373ffffffffffffffffffffffffffffffffffffffff1603611164576040517f08c379a000000000000000000000000000000000000000000000000000000000815260040161115b90613425565b60405180910390fd5b600073ffffffffffffffffffffffffffffffffffffffff168273ffffffffffffffffffffffffffffffffffffffff16036111d3576040517f08c379a00000000000000000000000000000000000000000000000000000000081526004016111ca906134b7565b60405180910390fd5b80600160008573ffffffffffffffffffffffffffffffffffffffff1673ffffffffffffffffffffffffffffffffffffffff16815260200190815260200160002060008473ffffffffffffffffffffffffffffffffffffffff1673ffffffffffffffffffffffffffffffffffffffff168152602001908152602001600020819055508173ffffffffffffffffffffffffffffffffffffffff168373ffffffffffffffffffffffffffffffffffffffff167f8c5be1e5ebec7d5bd14f71427d1e84f3dd0314c0f7b2291e5b200ac8c7c3b925836040516112b1919061288b565b60405180910390a3505050565b60006112ca8484610f2a565b90507fffffffffffffffffffffffffffffffffffffffffffffffffffffffffffffffff81146113445781811015611336576040517f08c379a000000000000000000000000000000000000000000000000000000000815260040161132d90613523565b60405180910390fd5b61134384848484036110f5565b5b50505050565b600073ffffffffffffffffffffffffffffffffffffffff168373ffffffffffffffffffffffffffffffffffffffff16036113b9576040517f08c379a00000000000000000000000000000000000000000000000000000000081526004016113b0906135b5565b60405180910390fd5b600073ffffffffffffffffffffffffffffffffffffffff168273ffffffffffffffffffffffffffffffffffffffff1603611428576040517f08c379a000000000000000000000000000000000000000000000000000000000815260040161141f90613647565b60405180910390fd5b611433838383611ae2565b60008060008573ffffffffffffffffffffffffffffffffffffffff1673ffffffffffffffffffffffffffffffffffffffff168152602001908152602001600020549050818110156114b9576040517f08c379a00000000000000000000000000000000000000000000000000000000081526004016114b0906136d9565b60405180910390fd5b8181036000808673ffffffffffffffffffffffffffffffffffffffff1673ffffffffffffffffffffffffffffffffffffffff16815260200190815260200160002081905550816000808573ffffffffffffffffffffffffffffffffffffffff1673ffffffffffffffffffffffffffffffffffffffff168152602001908152602001600020600082825401925050819055508273ffffffffffffffffffffffffffffffffffffffff168473ffffffffffffffffffffffffffffffffffffffff167fddf252ad1be2c89b69c2b068fc378daa952ba7f163c4a11628f55a4df523b3ef846040516115a7919061288b565b60405180910390a36115ba848484611ae7565b50505050565b60007f000000000000000000000000000000000000000000000000000000000000000073ffffffffffffffffffffffffffffffffffffffff163073ffffffffffffffffffffffffffffffffffffffff1614801561163c57507f000000000000000000000000000000000000000000000000000000000000000046145b15611669577f00000000000000000000000000000000000000000000000000000000000000009050611674565b611671611b12565b90505b90565b6000808380549050905060008082905060058311156116ed57600061169b84611ba8565b846116a6919061337f565b9050856116b38883611ca1565b60000160009054906101000a900463ffffffff1663ffffffff1611156116db578091506116eb565b6001816116e89190612f2d565b92505b505b5b8082101561174d5760006117028383611cb6565b90508561170f8883611ca1565b60000160009054906101000a900463ffffffff1663ffffffff16111561173757809150611747565b6001816117449190612f2d565b92505b506116ee565b60008114611793576117628660018303611ca1565b60000160049054906101000a90047bffffffffffffffffffffffffffffffffffffffffffffffffffffffff16611796565b60005b7bffffffffffffffffffffffffffffffffffffffffffffffffffffffff16935050505092915050565b60006117ca836107d0565b905060006117d7846108a1565b905082600960008673ffffffffffffffffffffffffffffffffffffffff1673ffffffffffffffffffffffffffffffffffffffff16815260200190815260200160002060006101000a81548173ffffffffffffffffffffffffffffffffffffffff021916908373ffffffffffffffffffffffffffffffffffffffff1602179055508273ffffffffffffffffffffffffffffffffffffffff168273ffffffffffffffffffffffffffffffffffffffff168573ffffffffffffffffffffffffffffffffffffffff167f3134e8a2e6d97e929a7e54011ea5485d7d196dd5f0ba4d4ef95803e8e3fc257f60405160405180910390a46118d3828483611cdc565b50505050565b600063ffffffff8016821115611924576040517f08c379a000000000000000000000000000000000000000000000000000000000815260040161191b9061376b565b60405180910390fd5b819050919050565b600081600001549050919050565b606060ff60001b83146119575761195083611ed5565b90506119e4565b81805461196390612ecd565b80601f016020809104026020016040519081016040528092919081815260200182805461198f90612ecd565b80156119dc5780601f106119b1576101008083540402835291602001916119dc565b820191906000526020600020905b8154815290600101906020018083116119bf57829003601f168201915b505050505090505b92915050565b600065ffffffffffff8016821115611a37576040517f08c379a0000000000000000000000000000000000000000000000000000000008152600401611a2e906137fd565b60405180910390fd5b819050919050565b6000611a52611a4c6115c0565b83611f49565b9050919050565b6000806000611a6a87878787611f8a565b91509150611a778161206c565b8192505050949350505050565b600080600760008473ffffffffffffffffffffffffffffffffffffffff1673ffffffffffffffffffffffffffffffffffffffff1681526020019081526020016000209050611ad18161192c565b9150611adc816121d2565b50919050565b505050565b611af28383836121e8565b611b0d611afe846107d0565b611b07846107d0565b83611cdc565b505050565b60007f8b73c3c69bb8fe3d512ecc4cf759cc79239f7b179b0ffacaa9a75d522b39400f7f00000000000000000000000000000000000000000000000000000000000000007f00000000000000000000000000000000000000000000000000000000000000004630604051602001611b8d95949392919061381d565b60405160208183030381529060405280519060200120905090565b6000808203611bba5760009050611c9c565b60006001611bc7846121ed565b901c6001901b90506001818481611be157611be0613870565b5b048201901c90506001818481611bfa57611bf9613870565b5b048201901c90506001818481611c1357611c12613870565b5b048201901c90506001818481611c2c57611c2b613870565b5b048201901c90506001818481611c4557611c44613870565b5b048201901c90506001818481611c5e57611c5d613870565b5b048201901c90506001818481611c7757611c76613870565b5b048201901c9050611c9881828581611c9257611c91613870565b5b046122ce565b9150505b919050565b60008260005281602060002001905092915050565b60006002828418611cc7919061389f565b828416611cd49190612f2d565b905092915050565b8173ffffffffffffffffffffffffffffffffffffffff168373ffffffffffffffffffffffffffffffffffffffff1614158015611d185750600081115b15611ed057600073ffffffffffffffffffffffffffffffffffffffff168373ffffffffffffffffffffffffffffffffffffffff1614611df657600080611d9f600a60008773ffffffffffffffffffffffffffffffffffffffff1673ffffffffffffffffffffffffffffffffffffffff1681526020019081526020016000206110d7856122e7565b915091508473ffffffffffffffffffffffffffffffffffffffff167fdec2bacdd2f05b59de34da9b523dff8be42e5e38e818c82fdb0bae774387a7248383604051611deb9291906138d0565b60405180910390a250505b600073ffffffffffffffffffffffffffffffffffffffff168273ffffffffffffffffffffffffffffffffffffffff1614611ecf57600080611e78600a60008673ffffffffffffffffffffffffffffffffffffffff1673ffffffffffffffffffffffffffffffffffffffff1681526020019081526020016000206110c1856122e7565b915091508373ffffffffffffffffffffffffffffffffffffffff167fdec2bacdd2f05b59de34da9b523dff8be42e5e38e818c82fdb0bae774387a7248383604051611ec49291906138d0565b60405180910390a250505b5b505050565b60606000611ee2836125c2565b90506000602067ffffffffffffffff811115611f0157611f00613039565b5b6040519080825280601f01601f191660200182016040528015611f335781602001600182028036833780820191505090505b5090508181528360208201528092505050919050565b60006040517f190100000000000000000000000000000000000000000000000000000000000081528360028201528260228201526042812091505092915050565b6000807f7fffffffffffffffffffffffffffffff5d576e7357a4501ddfe92f46681b20a08360001c1115611fc5576000600391509150612063565b600060018787878760405160008152602001604052604051611fea94939291906138f9565b6020604051602081039080840390855afa15801561200c573d6000803e3d6000fd5b505050602060405103519050600073ffffffffffffffffffffffffffffffffffffffff168173ffffffffffffffffffffffffffffffffffffffff160361205a57600060019250925050612063565b80600092509250505b94509492505050565b600060048111156120805761207f61393e565b5b8160048111156120935761209261393e565b5b03156121cf57600160048111156120ad576120ac61393e565b5b8160048111156120c0576120bf61393e565b5b03612100576040517f08c379a00000000000000000000000000000000000000000000000000000000081526004016120f7906139b9565b60405180910390fd5b600260048111156121145761211361393e565b5b8160048111156121275761212661393e565b5b03612167576040517f08c379a000000000000000000000000000000000000000000000000000000000815260040161215e90613a25565b60405180910390fd5b6003600481111561217b5761217a61393e565b5b81600481111561218e5761218d61393e565b5b036121ce576040517f08c379a00000000000000000000000000000000000000000000000000000000081526004016121c590613ab7565b60405180910390fd5b5b50565b6001816000016000828254019250508190555050565b505050565b600080600090506000608084901c111561220f57608083901c92506080810190505b6000604084901c111561222a57604083901c92506040810190505b6000602084901c111561224557602083901c92506020810190505b6000601084901c111561226057601083901c92506010810190505b6000600884901c111561227b57600883901c92506008810190505b6000600484901c111561229657600483901c92506004810190505b6000600284901c11156122b157600283901c92506002810190505b6000600184901c11156122c5576001810190505b80915050919050565b60008183106122dd57816122df565b825b905092915050565b60008060008580549050905060008082146123ad576123098760018403611ca1565b6040518060400160405290816000820160009054906101000a900463ffffffff1663ffffffff1663ffffffff1681526020016000820160049054906101000a90047bffffffffffffffffffffffffffffffffffffffffffffffffffffffff167bffffffffffffffffffffffffffffffffffffffffffffffffffffffff167bffffffffffffffffffffffffffffffffffffffffffffffffffffffff16815250506123e9565b6040518060400160405280600063ffffffff16815260200160007bffffffffffffffffffffffffffffffffffffffffffffffffffffffff168152505b905080602001517bffffffffffffffffffffffffffffffffffffffffffffffffffffffff16935061241e84868863ffffffff16565b92506000821180156124485750612433610aa0565b65ffffffffffff16816000015163ffffffff16145b156124b95761245683612612565b6124638860018503611ca1565b60000160046101000a8154817bffffffffffffffffffffffffffffffffffffffffffffffffffffffff02191690837bffffffffffffffffffffffffffffffffffffffffffffffffffffffff1602179055506125b8565b8660405180604001604052806124dd6124d0610aa0565b65ffffffffffff166118d9565b63ffffffff1681526020016124f186612612565b7bffffffffffffffffffffffffffffffffffffffffffffffffffffffff168152509080600181540180825580915050600190039060005260206000200160009091909190915060008201518160000160006101000a81548163ffffffff021916908363ffffffff16021790555060208201518160000160046101000a8154817bffffffffffffffffffffffffffffffffffffffffffffffffffffffff02191690837bffffffffffffffffffffffffffffffffffffffffffffffffffffffff16021790555050505b5050935093915050565b60008060ff8360001c169050601f811115612609576040517fb3512b0c00000000000000000000000000000000000000000000000000000000815260040160405180910390fd5b80915050919050565b60007bffffffffffffffffffffffffffffffffffffffffffffffffffffffff8016821115612675576040517f08c379a000000000000000000000000000000000000000000000000000000000815260040161266c90613b49565b60405180910390fd5b819050919050565b6040518060400160405280600063ffffffff16815260200160007bffffffffffffffffffffffffffffffffffffffffffffffffffffffff1681525090565b600081519050919050565b600082825260208201905092915050565b60005b838110156126f55780820151818401526020810190506126da565b60008484015250505050565b6000601f19601f8301169050919050565b600061271d826126bb565b61272781856126c6565b93506127378185602086016126d7565b61274081612701565b840191505092915050565b600060208201905081810360008301526127658184612712565b905092915050565b600080fd5b600073ffffffffffffffffffffffffffffffffffffffff82169050919050565b600061279d82612772565b9050919050565b6127ad81612792565b81146127b857600080fd5b50565b6000813590506127ca816127a4565b92915050565b6000819050919050565b6127e3816127d0565b81146127ee57600080fd5b50565b600081359050612800816127da565b92915050565b6000806040838503121561281d5761281c61276d565b5b600061282b858286016127bb565b925050602061283c858286016127f1565b9150509250929050565b60008115159050919050565b61285b81612846565b82525050565b60006020820190506128766000830184612852565b92915050565b612885816127d0565b82525050565b60006020820190506128a0600083018461287c565b92915050565b6000806000606084860312156128bf576128be61276d565b5b60006128cd868287016127bb565b93505060206128de868287016127bb565b92505060406128ef868287016127f1565b9150509250925092565b600060ff82169050919050565b61290f816128f9565b82525050565b600060208201905061292a6000830184612906565b92915050565b6000819050919050565b61294381612930565b82525050565b600060208201905061295e600083018461293a565b92915050565b60006020828403121561297a5761297961276d565b5b6000612988848285016127bb565b91505092915050565b61299a81612792565b82525050565b60006020820190506129b56000830184612991565b92915050565b600063ffffffff82169050919050565b6129d4816129bb565b82525050565b60006020820190506129ef60008301846129cb565b92915050565b60007fff0000000000000000000000000000000000000000000000000000000000000082169050919050565b612a2a816129f5565b82525050565b600081519050919050565b600082825260208201905092915050565b6000819050602082019050919050565b612a65816127d0565b82525050565b6000612a778383612a5c565b60208301905092915050565b6000602082019050919050565b6000612a9b82612a30565b612aa58185612a3b565b9350612ab083612a4c565b8060005b83811015612ae1578151612ac88882612a6b565b9750612ad383612a83565b925050600181019050612ab4565b5085935050505092915050565b600060e082019050612b03600083018a612a21565b8181036020830152612b158189612712565b90508181036040830152612b298188612712565b9050612b38606083018761287c565b612b456080830186612991565b612b5260a083018561293a565b81810360c0830152612b648184612a90565b905098975050505050505050565b600060208284031215612b8857612b8761276d565b5b6000612b96848285016127f1565b91505092915050565b600065ffffffffffff82169050919050565b612bba81612b9f565b82525050565b6000602082019050612bd56000830184612bb1565b92915050565b612be4816128f9565b8114612bef57600080fd5b50565b600081359050612c0181612bdb565b92915050565b612c1081612930565b8114612c1b57600080fd5b50565b600081359050612c2d81612c07565b92915050565b60008060008060008060c08789031215612c5057612c4f61276d565b5b6000612c5e89828a016127bb565b9650506020612c6f89828a016127f1565b9550506040612c8089828a016127f1565b9450506060612c9189828a01612bf2565b9350506080612ca289828a01612c1e565b92505060a0612cb389828a01612c1e565b9150509295509295509295565b600080600080600080600060e0888a031215612cdf57612cde61276d565b5b6000612ced8a828b016127bb565b9750506020612cfe8a828b016127bb565b9650506040612d0f8a828b016127f1565b9550506060612d208a828b016127f1565b9450506080612d318a828b01612bf2565b93505060a0612d428a828b01612c1e565b92505060c0612d538a828b01612c1e565b91505092959891949750929550565b60008060408385031215612d7957612d7861276d565b5b6000612d87858286016127bb565b9250506020612d98858286016127bb565b9150509250929050565b612dab816129bb565b8114612db657600080fd5b50565b600081359050612dc881612da2565b92915050565b60008060408385031215612de557612de461276d565b5b6000612df3858286016127bb565b9250506020612e0485828601612db9565b9150509250929050565b612e17816129bb565b82525050565b60007bffffffffffffffffffffffffffffffffffffffffffffffffffffffff82169050919050565b612e4e81612e1d565b82525050565b604082016000820151612e6a6000850182612e0e565b506020820151612e7d6020850182612e45565b50505050565b6000604082019050612e986000830184612e54565b92915050565b7f4e487b7100000000000000000000000000000000000000000000000000000000600052602260045260246000fd5b60006002820490506001821680612ee557607f821691505b602082108103612ef857612ef7612e9e565b5b50919050565b7f4e487b7100000000000000000000000000000000000000000000000000000000600052601160045260246000fd5b6000612f38826127d0565b9150612f43836127d0565b9250828201905080821115612f5b57612f5a612efe565b5b92915050565b7f4552433230566f7465733a20667574757265206c6f6f6b757000000000000000600082015250565b6000612f976019836126c6565b9150612fa282612f61565b602082019050919050565b60006020820190508181036000830152612fc681612f8a565b9050919050565b7f4552433230566f7465733a2062726f6b656e20636c6f636b206d6f6465000000600082015250565b6000613003601d836126c6565b915061300e82612fcd565b602082019050919050565b6000602082019050818103600083015261303281612ff6565b9050919050565b7f4e487b7100000000000000000000000000000000000000000000000000000000600052604160045260246000fd5b7f4e487b7100000000000000000000000000000000000000000000000000000000600052603260045260246000fd5b7f45524332303a2064656372656173656420616c6c6f77616e63652062656c6f7760008201527f207a65726f000000000000000000000000000000000000000000000000000000602082015250565b60006130f36025836126c6565b91506130fe82613097565b604082019050919050565b60006020820190508181036000830152613122816130e6565b9050919050565b7f4552433230566f7465733a207369676e61747572652065787069726564000000600082015250565b600061315f601d836126c6565b915061316a82613129565b602082019050919050565b6000602082019050818103600083015261318e81613152565b9050919050565b60006080820190506131aa600083018761293a565b6131b76020830186612991565b6131c4604083018561287c565b6131d1606083018461287c565b95945050505050565b7f4552433230566f7465733a20696e76616c6964206e6f6e636500000000000000600082015250565b60006132106019836126c6565b915061321b826131da565b602082019050919050565b6000602082019050818103600083015261323f81613203565b9050919050565b7f45524332305065726d69743a206578706972656420646561646c696e65000000600082015250565b600061327c601d836126c6565b915061328782613246565b602082019050919050565b600060208201905081810360008301526132ab8161326f565b9050919050565b600060c0820190506132c7600083018961293a565b6132d46020830188612991565b6132e16040830187612991565b6132ee606083018661287c565b6132fb608083018561287c565b61330860a083018461287c565b979650505050505050565b7f45524332305065726d69743a20696e76616c6964207369676e61747572650000600082015250565b6000613349601e836126c6565b915061335482613313565b602082019050919050565b600060208201905081810360008301526133788161333c565b9050919050565b600061338a826127d0565b9150613395836127d0565b92508282039050818111156133ad576133ac612efe565b5b92915050565b7f45524332303a20617070726f76652066726f6d20746865207a65726f2061646460008201527f7265737300000000000000000000000000000000000000000000000000000000602082015250565b600061340f6024836126c6565b915061341a826133b3565b604082019050919050565b6000602082019050818103600083015261343e81613402565b9050919050565b7f45524332303a20617070726f766520746f20746865207a65726f20616464726560008201527f7373000000000000000000000000000000000000000000000000000000000000602082015250565b60006134a16022836126c6565b91506134ac82613445565b604082019050919050565b600060208201905081810360008301526134d081613494565b9050919050565b7f45524332303a20696e73756666696369656e7420616c6c6f77616e6365000000600082015250565b600061350d601d836126c6565b9150613518826134d7565b602082019050919050565b6000602082019050818103600083015261353c81613500565b9050919050565b7f45524332303a207472616e736665722066726f6d20746865207a65726f20616460008201527f6472657373000000000000000000000000000000000000000000000000000000602082015250565b600061359f6025836126c6565b91506135aa82613543565b604082019050919050565b600060208201905081810360008301526135ce81613592565b9050919050565b7f45524332303a207472616e7366657220746f20746865207a65726f206164647260008201527f6573730000000000000000000000000000000000000000000000000000000000602082015250565b60006136316023836126c6565b915061363c826135d5565b604082019050919050565b6000602082019050818103600083015261366081613624565b9050919050565b7f45524332303a207472616e7366657220616d6f756e742065786365656473206260008201527f616c616e63650000000000000000000000000000000000000000000000000000602082015250565b60006136c36026836126c6565b91506136ce82613667565b604082019050919050565b600060208201905081810360008301526136f2816136b6565b9050919050565b7f53616665436173743a2076616c756520646f65736e27742066697420696e203360008201527f3220626974730000000000000000000000000000000000000000000000000000602082015250565b60006137556026836126c6565b9150613760826136f9565b604082019050919050565b6000602082019050818103600083015261378481613748565b9050919050565b7f53616665436173743a2076616c756520646f65736e27742066697420696e203460008201527f3820626974730000000000000000000000000000000000000000000000000000602082015250565b60006137e76026836126c6565b91506137f28261378b565b604082019050919050565b60006020820190508181036000830152613816816137da565b9050919050565b600060a082019050613832600083018861293a565b61383f602083018761293a565b61384c604083018661293a565b613859606083018561287c565b6138666080830184612991565b9695505050505050565b7f4e487b7100000000000000000000000000000000000000000000000000000000600052601260045260246000fd5b60006138aa826127d0565b91506138b5836127d0565b9250826138c5576138c4613870565b5b828204905092915050565b60006040820190506138e5600083018561287c565b6138f2602083018461287c565b9392505050565b600060808201905061390e600083018761293a565b61391b6020830186612906565b613928604083018561293a565b613935606083018461293a565b95945050505050565b7f4e487b7100000000000000000000000000000000000000000000000000000000600052602160045260246000fd5b7f45434453413a20696e76616c6964207369676e61747572650000000000000000600082015250565b60006139a36018836126c6565b91506139ae8261396d565b602082019050919050565b600060208201905081810360008301526139d281613996565b9050919050565b7f45434453413a20696e76616c6964207369676e6174757265206c656e67746800600082015250565b6000613a0f601f836126c6565b9150613a1a826139d9565b602082019050919050565b60006020820190508181036000830152613a3e81613a02565b9050919050565b7f45434453413a20696e76616c6964207369676e6174757265202773272076616c60008201527f7565000000000000000000000000000000000000000000000000000000000000602082015250565b6000613aa16022836126c6565b9150613aac82613a45565b604082019050919050565b60006020820190508181036000830152613ad081613a94565b9050919050565b7f53616665436173743a2076616c756520646f65736e27742066697420696e203260008201527f3234206269747300000000000000000000000000000000000000000000000000602082015250565b6000613b336027836126c6565b9150613b3e82613ad7565b604082019050919050565b60006020820190508181036000830152613b6281613b26565b905091905056fea26469706673582212202dc0377fad8800407bf035b417f5db66d33dfdf94aca5f7f72018bc5e632646164736f6c63430008140033",
  "linkReferences": {},
  "deployedLinkReferences": {}
}