{
  "_format": "hh-sol-artifact-1",
  "contractName": "MyGovernor",
  "sourceName": "contracts/GovernanceToken.sol",
  "abi": [
    {
      "inputs": [
        {
          "internalType": "contract IVotes",
          "name": "_token",
          "type": "address"
        }
      ],
      "stateMutability": "nonpayable",
      "type": "constructor"
    },
    {
      "inputs": [],
      "name": "Empty",
      "type": "error"
    },
    {
      "inputs": [],
      "name": "InvalidShortString",
      "type": "error"
    },
    {
      "inputs": [
        {
          "internalType": "string",
          "name": "str",
          "type": "string"
        }
      ],
      "name": "StringTooLong",
      "type": "error"
    },
    {
      "anonymous": false,
      "inputs": [],
      "name": "EIP712DomainChanged",
      "type": "event"
    },
    {
      "anonymous": false,
      "inputs": [
        {
          "indexed": false,
          "internalType": "uint256",
          "name": "proposalId",
          "type": "uint256"
        }
      ],
      "name": "ProposalCanceled",
      "type": "event"
    },
    {
      "anonymous": false,
      "inputs": [
        {
          "indexed": false,
          "internalType": "uint256",
          "name": "proposalId",
          "type": "uint256"
        },
        {
          "indexed": false,
          "internalType": "address",
          "name": "proposer",
          "type": "address"
        },
        {
          "indexed": false,
          "internalType": "address[]",
          "name": "targets",
          "type": "address[]"
        },
        {
          "indexed": false,
          "internalType": "uint256[]",
          "name": "values",
          "type": "uint256[]"
        },
        {
          "indexed": false,
          "internalType": "string[]",
          "name": "signatures",
          "type": "string[]"
        },
        {
          "indexed": false,
          "internalType": "bytes[]",
          "name": "calldatas",
          "type": "bytes[]"
        },
        {
          "indexed": false,
          "internalType": "uint256",
          "name": "voteStart",
          "type": "uint256"
        },
        {
          "indexed": false,
          "internalType": "uint256",
          "name": "voteEnd",
          "type": "uint256"
        },
        {
          "indexed": false,
          "internalType": "string",
          "name": "description",
          "type": "string"
        }
      ],
      "name": "ProposalCreated",
      "type": "event"
    },
    {
      "anonymous": false,
      "inputs": [
        {
          "indexed": false,
          "internalType": "uint256",
          "name": "proposalId",
          "type": "uint256"
        }
      ],
      "name": "ProposalExecuted",
      "type": "event"
    },
    {
      "anonymous": false,
      "inputs": [
        {
          "indexed": false,
          "internalType": "uint256",
          "name": "oldProposalThreshold",
          "type": "uint256"
        },
        {
          "indexed": false,
          "internalType": "uint256",
          "name": "newProposalThreshold",
          "type": "uint256"
        }
      ],
      "name": "ProposalThresholdSet",
      "type": "event"
    },
    {
      "anonymous": false,
      "inputs": [
        {
          "indexed": true,
          "internalType": "address",
          "name": "voter",
          "type": "address"
        },
        {
          "indexed": false,
          "internalType": "uint256",
          "name": "proposalId",
          "type": "uint256"
        },
        {
          "indexed": false,
          "internalType": "uint8",
          "name": "support",
          "type": "uint8"
        },
        {
          "indexed": false,
          "internalType": "uint256",
          "name": "weight",
          "type": "uint256"
        },
        {
          "indexed": false,
          "internalType": "string",
          "name": "reason",
          "type": "string"
        }
      ],
      "name": "VoteCast",
      "type": "event"
    },
    {
      "anonymous": false,
      "inputs": [
        {
          "indexed": true,
          "internalType": "address",
          "name": "voter",
          "type": "address"
        },
        {
          "indexed": false,
          "internalType": "uint256",
          "name": "proposalId",
          "type": "uint256"
        },
        {
          "indexed": false,
          "internalType": "uint8",
          "name": "support",
          "type": "uint8"
        },
        {
          "indexed": false,
          "internalType": "uint256",
          "name": "weight",
          "type": "uint256"
        },
        {
          "indexed": false,
          "internalType": "string",
          "name": "reason",
          "type": "string"
        },
        {
          "indexed": false,
          "internalType": "bytes",
          "name": "params",
          "type": "bytes"
        }
      ],
      "name": "VoteCastWithParams",
      "type": "event"
    },
    {
      "anonymous": false,
      "inputs": [
        {
          "indexed": false,
          "internalType": "uint256",
          "name": "oldVotingDelay",
          "type": "uint256"
        },
        {
          "indexed": false,
          "internalType": "uint256",
          "name": "newVotingDelay",
          "type": "uint256"
        }
      ],
      "name": "VotingDelaySet",
      "type": "event"
    },
    {
      "anonymous": false,
      "inputs": [
        {
          "indexed": false,
          "internalType": "uint256",
          "name": "oldVotingPeriod",
          "type": "uint256"
        },
        {
          "indexed": false,
          "internalType": "uint256",
          "name": "newVotingPeriod",
          "type": "uint256"
        }
      ],
      "name": "VotingPeriodSet",
      "type": "event"
    },
    {
      "inputs": [],
      "name": "BALLOT_TYPEHASH",
      "outputs": [
        {
          "internalType": "bytes32",
          "name": "",
          "type": "bytes32"
        }
      ],
      "stateMutability": "view",
      "type": "function"
    },
    {
      "inputs": [],
      "name": "CLOCK_MODE",
      "outputs": [
        {
          "internalType": "string",
          "name": "",
          "type": "string"
        }
      ],
      "stateMutability": "view",
      "type": "function"
    },
    {
      "inputs": [],
      "name": "COUNTING_MODE",
      "outputs": [
        {
          "internalType": "string",
          "name": "",
          "type": "string"
        }
      ],
      "stateMutability": "pure",
      "type": "function"
    },
    {
      "inputs": [],
      "name": "EXTENDED_BALLOT_TYPEHASH",
      "outputs": [
        {
          "internalType": "bytes32",
          "name": "",
          "type": "bytes32"
        }
      ],
      "stateMutability": "view",
      "type": "function"
    },
    {
      "inputs": [
        {
          "internalType": "address[]",
          "name": "targets",
          "type": "address[]"
        },
        {
          "internalType": "uint256[]",
          "name": "values",
          "type": "uint256[]"
        },
        {
          "internalType": "bytes[]",
          "name": "calldatas",
          "type": "bytes[]"
        },
        {
          "internalType": "bytes32",
          "name": "descriptionHash",
          "type": "bytes32"
        }
      ],
      "name": "cancel",
      "outputs": [
        {
          "internalType": "uint256",
          "name": "",
          "type": "uint256"
        }
      ],
      "stateMutability": "nonpayable",
      "type": "function"
    },
    {
      "inputs": [
        {
          "internalType": "uint256",
          "name": "proposalId",
          "type": "uint256"
        },
        {
          "internalType": "uint8",
          "name": "support",
          "type": "uint8"
        }
      ],
      "name": "castVote",
      "outputs": [
        {
          "internalType": "uint256",
          "name": "",
          "type": "uint256"
        }
      ],
      "stateMutability": "nonpayable",
      "type": "function"
    },
    {
      "inputs": [
        {
          "internalType": "uint256",
          "name": "proposalId",
          "type": "uint256"
        },
        {
          "internalType": "uint8",
          "name": "support",
          "type": "uint8"
        },
        {
          "internalType": "uint8",
          "name": "v",
          "type": "uint8"
        },
        {
          "internalType": "bytes32",
          "name": "r",
          "type": "bytes32"
        },
        {
          "internalType": "bytes32",
          "name": "s",
          "type": "bytes32"
        }
      ],
      "name": "castVoteBySig",
      "outputs": [
        {
          "internalType": "uint256",
          "name": "",
          "type": "uint256"
        }
      ],
      "stateMutability": "nonpayable",
      "type": "function"
    },
    {
      "inputs": [
        {
          "internalType": "uint256",
          "name": "proposalId",
          "type": "uint256"
        },
        {
          "internalType": "uint8",
          "name": "support",
          "type": "uint8"
        },
        {
          "internalType": "string",
          "name": "reason",
          "type": "string"
        }
      ],
      "name": "castVoteWithReason",
      "outputs": [
        {
          "internalType": "uint256",
          "name": "",
          "type": "uint256"
        }
      ],
      "stateMutability": "nonpayable",
      "type": "function"
    },
    {
      "inputs": [
        {
          "internalType": "uint256",
          "name": "proposalId",
          "type": "uint256"
        },
        {
          "internalType": "uint8",
          "name": "support",
          "type": "uint8"
        },
        {
          "internalType": "string",
          "name": "reason",
          "type": "string"
        },
        {
          "internalType": "bytes",
          "name": "params",
          "type": "bytes"
        }
      ],
      "name": "castVoteWithReasonAndParams",
      "outputs": [
        {
          "internalType": "uint256",
          "name": "",
          "type": "uint256"
        }
      ],
      "stateMutability": "nonpayable",
      "type": "function"
    },
    {
      "inputs": [
        {
          "internalType": "uint256",
          "name": "proposalId",
          "type": "uint256"
        },
        {
          "internalType": "uint8",
          "name": "support",
          "type": "uint8"
        },
        {
          "internalType": "string",
          "name": "reason",
          "type": "string"
        },
        {
          "internalType": "bytes",
          "name": "params",
          "type": "bytes"
        },
        {
          "internalType": "uint8",
          "name": "v",
          "type": "uint8"
        },
        {
          "internalType": "bytes32",
          "name": "r",
          "type": "bytes32"
        },
        {
          "internalType": "bytes32",
          "name": "s",
          "type": "bytes32"
        }
      ],
      "name": "castVoteWithReasonAndParamsBySig",
      "outputs": [
        {
          "internalType": "uint256",
          "name": "",
          "type": "uint256"
        }
      ],
      "stateMutability": "nonpayable",
      "type": "function"
    },
    {
      "inputs": [],
      "name": "clock",
      "outputs": [
        {
          "internalType": "uint48",
          "name": "",
          "type": "uint48"
        }
      ],
      "stateMutability": "view",
      "type": "function"
    },
    {
      "inputs": [],
      "name": "eip712Domain",
      "outputs": [
        {
          "internalType": "bytes1",
          "name": "fields",
          "type": "bytes1"
        },
        {
          "internalType": "string",
          "name": "name",
          "type": "string"
        },
        {
          "internalType": "string",
          "name": "version",
          "type": "string"
        },
        {
          "internalType": "uint256",
          "name": "chainId",
          "type": "uint256"
        },
        {
          "internalType": "address",
          "name": "verifyingContract",
          "type": "address"
        },
        {
          "internalType": "bytes32",
          "name": "salt",
          "type": "bytes32"
        },
        {
          "internalType": "uint256[]",
          "name": "extensions",
          "type": "uint256[]"
        }
      ],
      "stateMutability": "view",
      "type": "function"
    },
    {
      "inputs": [
        {
          "internalType": "address[]",
          "name": "targets",
          "type": "address[]"
        },
        {
          "internalType": "uint256[]",
          "name": "values",
          "type": "uint256[]"
        },
        {
          "internalType": "bytes[]",
          "name": "calldatas",
          "type": "bytes[]"
        },
        {
          "internalType": "bytes32",
          "name": "descriptionHash",
          "type": "bytes32"
        }
      ],
      "name": "execute",
      "outputs": [
        {
          "internalType": "uint256",
          "name": "",
          "type": "uint256"
        }
      ],
      "stateMutability": "payable",
      "type": "function"
    },
    {
      "inputs": [
        {
          "internalType": "address",
          "name": "account",
          "type": "address"
        },
        {
          "internalType": "uint256",
          "name": "timepoint",
          "type": "uint256"
        }
      ],
      "name": "getVotes",
      "outputs": [
        {
          "internalType": "uint256",
          "name": "",
          "type": "uint256"
        }
      ],
      "stateMutability": "view",
      "type": "function"
    },
    {
      "inputs": [
        {
          "internalType": "address",
          "name": "account",
          "type": "address"
        },
        {
          "internalType": "uint256",
          "name": "timepoint",
          "type": "uint256"
        },
        {
          "internalType": "bytes",
          "name": "params",
          "type": "bytes"
        }
      ],
      "name": "getVotesWithParams",
      "outputs": [
        {
          "internalType": "uint256",
          "name": "",
          "type": "uint256"
        }
      ],
      "stateMutability": "view",
      "type": "function"
    },
    {
      "inputs": [
        {
          "internalType": "uint256",
          "name": "proposalId",
          "type": "uint256"
        },
        {
          "internalType": "address",
          "name": "account",
          "type": "address"
        }
      ],
      "name": "hasVoted",
      "outputs": [
        {
          "internalType": "bool",
          "name": "",
          "type": "bool"
        }
      ],
      "stateMutability": "view",
      "type": "function"
    },
    {
      "inputs": [
        {
          "internalType": "address[]",
          "name": "targets",
          "type": "address[]"
        },
        {
          "internalType": "uint256[]",
          "name": "values",
          "type": "uint256[]"
        },
        {
          "internalType": "bytes[]",
          "name": "calldatas",
          "type": "bytes[]"
        },
        {
          "internalType": "bytes32",
          "name": "descriptionHash",
          "type": "bytes32"
        }
      ],
      "name": "hashProposal",
      "outputs": [
        {
          "internalType": "uint256",
          "name": "",
          "type": "uint256"
        }
      ],
      "stateMutability": "pure",
      "type": "function"
    },
    {
      "inputs": [],
      "name": "name",
      "outputs": [
        {
          "internalType": "string",
          "name": "",
          "type": "string"
        }
      ],
      "stateMutability": "view",
      "type": "function"
    },
    {
      "inputs": [
        {
          "internalType": "address",
          "name": "",
          "type": "address"
        },
        {
          "internalType": "address",
          "name": "",
          "type": "address"
        },
        {
          "internalType": "uint256[]",
          "name": "",
          "type": "uint256[]"
        },
        {
          "internalType": "uint256[]",
          "name": "",
          "type": "uint256[]"
        },
        {
          "internalType": "bytes",
          "name": "",
          "type": "bytes"
        }
      ],
      "name": "onERC1155BatchReceived",
      "outputs": [
        {
          "internalType": "bytes4",
          "name": "",
          "type": "bytes4"
        }
      ],
      "stateMutability": "nonpayable",
      "type": "function"
    },
    {
      "inputs": [
        {
          "internalType": "address",
          "name": "",
          "type": "address"
        },
        {
          "internalType": "address",
          "name": "",
          "type": "address"
        },
        {
          "internalType": "uint256",
          "name": "",
          "type": "uint256"
        },
        {
          "internalType": "uint256",
          "name": "",
          "type": "uint256"
        },
        {
          "internalType": "bytes",
          "name": "",
          "type": "bytes"
        }
      ],
      "name": "onERC1155Received",
      "outputs": [
        {
          "internalType": "bytes4",
          "name": "",
          "type": "bytes4"
        }
      ],
      "stateMutability": "nonpayable",
      "type": "function"
    },
    {
      "inputs": [
        {
          "internalType": "address",
          "name": "",
          "type": "address"
        },
        {
          "internalType": "address",
          "name": "",
          "type": "address"
        },
        {
          "internalType": "uint256",
          "name": "",
          "type": "uint256"
        },
        {
          "internalType": "bytes",
          "name": "",
          "type": "bytes"
        }
      ],
      "name": "onERC721Received",
      "outputs": [
        {
          "internalType": "bytes4",
          "name": "",
          "type": "bytes4"
        }
      ],
      "stateMutability": "nonpayable",
      "type": "function"
    },
    {
      "inputs": [
        {
          "internalType": "uint256",
          "name": "proposalId",
          "type": "uint256"
        }
      ],
      "name": "proposalDeadline",
      "outputs": [
        {
          "internalType": "uint256",
          "name": "",
          "type": "uint256"
        }
      ],
      "stateMutability": "view",
      "type": "function"
    },
    {
      "inputs": [
        {
          "internalType": "uint256",
          "name": "proposalId",
          "type": "uint256"
        }
      ],
      "name": "proposalProposer",
      "outputs": [
        {
          "internalType": "address",
          "name": "",
          "type": "address"
        }
      ],
      "stateMutability": "view",
      "type": "function"
    },
    {
      "inputs": [
        {
          "internalType": "uint256",
          "name": "proposalId",
          "type": "uint256"
        }
      ],
      "name": "proposalSnapshot",
      "outputs": [
        {
          "internalType": "uint256",
          "name": "",
          "type": "uint256"
        }
      ],
      "stateMutability": "view",
      "type": "function"
    },
    {
      "inputs": [],
      "name": "proposalThreshold",
      "outputs": [
        {
          "internalType": "uint256",
          "name": "",
          "type": "uint256"
        }
      ],
      "stateMutability": "view",
      "type": "function"
    },
    {
      "inputs": [
        {
          "internalType": "uint256",
          "name": "proposalId",
          "type": "uint256"
        }
      ],
      "name": "proposalVotes",
      "outputs": [
        {
          "internalType": "uint256",
          "name": "againstVotes",
          "type": "uint256"
        },
        {
          "internalType": "uint256",
          "name": "forVotes",
          "type": "uint256"
        },
        {
          "internalType": "uint256",
          "name": "abstainVotes",
          "type": "uint256"
        }
      ],
      "stateMutability": "view",
      "type": "function"
    },
    {
      "inputs": [
        {
          "internalType": "address[]",
          "name": "targets",
          "type": "address[]"
        },
        {
          "internalType": "uint256[]",
          "name": "values",
          "type": "uint256[]"
        },
        {
          "internalType": "bytes[]",
          "name": "calldatas",
          "type": "bytes[]"
        },
        {
          "internalType": "string",
          "name": "description",
          "type": "string"
        }
      ],
      "name": "propose",
      "outputs": [
        {
          "internalType": "uint256",
          "name": "",
          "type": "uint256"
        }
      ],
      "stateMutability": "nonpayable",
      "type": "function"
    },
    {
      "inputs": [
        {
          "internalType": "uint256",
          "name": "",
          "type": "uint256"
        }
      ],
      "name": "quorum",
      "outputs": [
        {
          "internalType": "uint256",
          "name": "",
          "type": "uint256"
        }
      ],
      "stateMutability": "pure",
      "type": "function"
    },
    {
      "inputs": [
        {
          "internalType": "address",
          "name": "target",
          "type": "address"
        },
        {
          "internalType": "uint256",
          "name": "value",
          "type": "uint256"
        },
        {
          "internalType": "bytes",
          "name": "data",
          "type": "bytes"
        }
      ],
      "name": "relay",
      "outputs": [],
      "stateMutability": "payable",
      "type": "function"
    },
    {
      "inputs": [
        {
          "internalType": "uint256",
          "name": "newProposalThreshold",
          "type": "uint256"
        }
      ],
      "name": "setProposalThreshold",
      "outputs": [],
      "stateMutability": "nonpayable",
      "type": "function"
    },
    {
      "inputs": [
        {
          "internalType": "uint256",
          "name": "newVotingDelay",
          "type": "uint256"
        }
      ],
      "name": "setVotingDelay",
      "outputs": [],
      "stateMutability": "nonpayable",
      "type": "function"
    },
    {
      "inputs": [
        {
          "internalType": "uint256",
          "name": "newVotingPeriod",
          "type": "uint256"
        }
      ],
      "name": "setVotingPeriod",
      "outputs": [],
      "stateMutability": "nonpayable",
      "type": "function"
    },
    {
      "inputs": [
        {
          "internalType": "uint256",
          "name": "proposalId",
          "type": "uint256"
        }
      ],
      "name": "state",
      "outputs": [
        {
          "internalType": "enum IGovernor.ProposalState",
          "name": "",
          "type": "uint8"
        }
      ],
      "stateMutability": "view",
      "type": "function"
    },
    {
      "inputs": [
        {
          "internalType": "bytes4",
          "name": "interfaceId",
          "type": "bytes4"
        }
      ],
      "name": "supportsInterface",
      "outputs": [
        {
          "internalType": "bool",
          "name": "",
          "type": "bool"
        }
      ],
      "stateMutability": "view",
      "type": "function"
    },
    {
      "inputs": [],
      "name": "token",
      "outputs": [
        {
          "internalType": "contract IERC5805",
          "name": "",
          "type": "address"
        }
      ],
      "stateMutability": "view",
      "type": "function"
    },
    {
      "inputs": [],
      "name": "version",
      "outputs": [
        {
          "internalType": "string",
          "name": "",
          "type": "string"
        }
      ],
      "stateMutability": "view",
      "type": "function"
    },
    {
      "inputs": [],
      "name": "votingDelay",
      "outputs": [
        {
          "internalType": "uint256",
          "name": "",
          "type": "uint256"
        }
      ],
      "stateMutability": "view",
      "type": "function"
    },
    {
      "inputs": [],
      "name": "votingPeriod",
      "outputs": [
        {
          "internalType": "uint256",
          "name": "",
          "type": "uint256"
        }
      ],
      "stateMutability": "view",
      "type": "function"
    },
    {
      "stateMutability": "payable",
      "type": "receive"
    }
  ],
  "bytecode": "0x6101806040523480156200001257600080fd5b5060405162006a7b38038062006a7b8339818101604052810190620000389190620004c5565b60016064678ac7230489e80000836040518060400160405280600a81526020017f4d79476f7665726e6f7200000000000000000000000000000000000000000000815250806200008d620001c360201b60201c565b620000a36000836200020060201b90919060201c565b6101208181525050620000c16001826200020060201b90919060201c565b6101408181525050818051906020012060e08181525050808051906020012061010081815250504660a08181525050620001006200025860201b60201c565b608081815250503073ffffffffffffffffffffffffffffffffffffffff1660c08173ffffffffffffffffffffffffffffffffffffffff1681525050505080600290816200014e919062000771565b50508073ffffffffffffffffffffffffffffffffffffffff166101608173ffffffffffffffffffffffffffffffffffffffff1681525050506200019783620002b560201b60201c565b620001a882620002fc60201b60201c565b620001b9816200038960201b60201c565b5050505062000b0c565b60606040518060400160405280600181526020017f3100000000000000000000000000000000000000000000000000000000000000815250905090565b600060208351101562000226576200021e83620003d060201b60201c565b905062000252565b8262000238836200043d60201b60201c565b600001908162000249919062000771565b5060ff60001b90505b92915050565b60007f8b73c3c69bb8fe3d512ecc4cf759cc79239f7b179b0ffacaa9a75d522b39400f60e0516101005146306040516020016200029a95949392919062000895565b60405160208183030381529060405280519060200120905090565b7fc565b045403dc03c2eea82b81a0465edad9e2e7fc4d97e11421c209da93d7a9360075482604051620002ea929190620008f2565b60405180910390a18060078190555050565b6000811162000342576040517f08c379a00000000000000000000000000000000000000000000000000000000081526004016200033990620009a6565b60405180910390fd5b7f7e3f7f0708a84de9203036abaa450dccc85ad5ff52f78c170f3edb55cf5e88286008548260405162000377929190620008f2565b60405180910390a18060088190555050565b7fccb45da8d5717e6c4544694297c4ba5cf151d455c9bb0ed4fc7a38411bc0546160095482604051620003be929190620008f2565b60405180910390a18060098190555050565b600080829050601f815111156200042057826040517f305a27a900000000000000000000000000000000000000000000000000000000815260040162000417919062000a46565b60405180910390fd5b8051816200042e9062000a9c565b60001c1760001b915050919050565b6000819050919050565b600080fd5b600073ffffffffffffffffffffffffffffffffffffffff82169050919050565b600062000479826200044c565b9050919050565b60006200048d826200046c565b9050919050565b6200049f8162000480565b8114620004ab57600080fd5b50565b600081519050620004bf8162000494565b92915050565b600060208284031215620004de57620004dd62000447565b5b6000620004ee84828501620004ae565b91505092915050565b600081519050919050565b7f4e487b7100000000000000000000000000000000000000000000000000000000600052604160045260246000fd5b7f4e487b7100000000000000000000000000000000000000000000000000000000600052602260045260246000fd5b600060028204905060018216806200057957607f821691505b6020821081036200058f576200058e62000531565b5b50919050565b60008190508160005260206000209050919050565b60006020601f8301049050919050565b600082821b905092915050565b600060088302620005f97fffffffffffffffffffffffffffffffffffffffffffffffffffffffffffffffff82620005ba565b620006058683620005ba565b95508019841693508086168417925050509392505050565b6000819050919050565b6000819050919050565b6000620006526200064c62000646846200061d565b62000627565b6200061d565b9050919050565b6000819050919050565b6200066e8362000631565b620006866200067d8262000659565b848454620005c7565b825550505050565b600090565b6200069d6200068e565b620006aa81848462000663565b505050565b5b81811015620006d257620006c660008262000693565b600181019050620006b0565b5050565b601f8211156200072157620006eb8162000595565b620006f684620005aa565b8101602085101562000706578190505b6200071e6200071585620005aa565b830182620006af565b50505b505050565b600082821c905092915050565b6000620007466000198460080262000726565b1980831691505092915050565b600062000761838362000733565b9150826002028217905092915050565b6200077c82620004f7565b67ffffffffffffffff81111562000798576200079762000502565b5b620007a4825462000560565b620007b1828285620006d6565b600060209050601f831160018114620007e95760008415620007d4578287015190505b620007e0858262000753565b86555062000850565b601f198416620007f98662000595565b60005b828110156200082357848901518255600182019150602085019450602081019050620007fc565b868310156200084357848901516200083f601f89168262000733565b8355505b6001600288020188555050505b505050505050565b6000819050919050565b6200086d8162000858565b82525050565b6200087e816200061d565b82525050565b6200088f816200046c565b82525050565b600060a082019050620008ac600083018862000862565b620008bb602083018762000862565b620008ca604083018662000862565b620008d9606083018562000873565b620008e8608083018462000884565b9695505050505050565b600060408201905062000909600083018562000873565b62000918602083018462000873565b9392505050565b600082825260208201905092915050565b7f476f7665726e6f7253657474696e67733a20766f74696e6720706572696f642060008201527f746f6f206c6f7700000000000000000000000000000000000000000000000000602082015250565b60006200098e6027836200091f565b91506200099b8262000930565b604082019050919050565b60006020820190508181036000830152620009c1816200097f565b9050919050565b60005b83811015620009e8578082015181840152602081019050620009cb565b60008484015250505050565b6000601f19601f8301169050919050565b600062000a1282620004f7565b62000a1e81856200091f565b935062000a30818560208601620009c8565b62000a3b81620009f4565b840191505092915050565b6000602082019050818103600083015262000a62818462000a05565b905092915050565b600081519050919050565b6000819050602082019050919050565b600062000a93825162000858565b80915050919050565b600062000aa98262000a6a565b8262000ab58462000a75565b905062000ac28162000a85565b9250602082101562000b055762000b007fffffffffffffffffffffffffffffffffffffffffffffffffffffffffffffffff83602003600802620005ba565b831692505b5050919050565b60805160a05160c05160e05161010051610120516101405161016051615ef462000b87600039600081816113a201528181611cdd015281816122500152612cbb01526000611c1e01526000611bea015260006134980152600061347701526000612e7201526000612ec801526000612ef10152615ef46000f3fe6080604052600436106102295760003560e01c806370b0f66011610123578063c28bc2fa116100ab578063eb9019d41161006f578063eb9019d414610973578063ece40cc1146109b0578063f23a6e61146109d9578063f8ce560a14610a16578063fc0c546a14610a53576102a5565b8063c28bc2fa1461089b578063c59057e4146108b7578063dd4e2ba5146108f4578063deaaa7cc1461091f578063ea0217cf1461094a576102a5565b806391ddadf4116100f257806391ddadf41461078e5780639a802a6d146107b9578063b58131b0146107f6578063bc197c8114610821578063c01f9e371461085e576102a5565b806370b0f660146106ba5780637b3c71d3146106e35780637d5e81e21461072057806384b0196e1461075d576102a5565b80633932abb1116101b15780634bf5d7e9116101755780634bf5d7e9146105ab578063544ffc9c146105d657806354fd4d501461061557806356781388146106405780635f398a141461067d576102a5565b80633932abb11461048c5780633bccf4fd146104b75780633e4f49e6146104f45780634385963214610531578063452115d61461056e576102a5565b8063143489d0116101f8578063143489d01461037a578063150b7a02146103b75780632656227d146103f45780632d63f693146104245780632fe3e26114610461576102a5565b806301ffc9a7146102aa57806302a251a3146102e7578063034201811461031257806306fdde031461034f576102a5565b366102a5573073ffffffffffffffffffffffffffffffffffffffff1661024d610a7e565b73ffffffffffffffffffffffffffffffffffffffff16146102a3576040517f08c379a000000000000000000000000000000000000000000000000000000000815260040161029a90613799565b60405180910390fd5b005b600080fd5b3480156102b657600080fd5b506102d160048036038101906102cc9190613825565b610a86565b6040516102de919061386d565b60405180910390f35b3480156102f357600080fd5b506102fc610ca2565b60405161030991906138a1565b60405180910390f35b34801561031e57600080fd5b5061033960048036038101906103349190613afd565b610cb1565b60405161034691906138a1565b60405180910390f35b34801561035b57600080fd5b50610364610d96565b6040516103719190613c49565b60405180910390f35b34801561038657600080fd5b506103a1600480360381019061039c9190613c6b565b610e28565b6040516103ae9190613cd9565b60405180910390f35b3480156103c357600080fd5b506103de60048036038101906103d99190613d20565b610e68565b6040516103eb9190613db2565b60405180910390f35b61040e60048036038101906104099190614034565b610e7c565b60405161041b91906138a1565b60405180910390f35b34801561043057600080fd5b5061044b60048036038101906104469190613c6b565b610fca565b60405161045891906138a1565b60405180910390f35b34801561046d57600080fd5b50610476611008565b60405161048391906140fe565b60405180910390f35b34801561049857600080fd5b506104a161102c565b6040516104ae91906138a1565b60405180910390f35b3480156104c357600080fd5b506104de60048036038101906104d99190614119565b61103b565b6040516104eb91906138a1565b60405180910390f35b34801561050057600080fd5b5061051b60048036038101906105169190613c6b565b6110c5565b604051610528919061420b565b60405180910390f35b34801561053d57600080fd5b5061055860048036038101906105539190614226565b6111f1565b604051610565919061386d565b60405180910390f35b34801561057a57600080fd5b5061059560048036038101906105909190614034565b61125c565b6040516105a291906138a1565b60405180910390f35b3480156105b757600080fd5b506105c061139e565b6040516105cd9190613c49565b60405180910390f35b3480156105e257600080fd5b506105fd60048036038101906105f89190613c6b565b611476565b60405161060c93929190614266565b60405180910390f35b34801561062157600080fd5b5061062a6114ae565b6040516106379190613c49565b60405180910390f35b34801561064c57600080fd5b506106676004803603810190610662919061429d565b6114eb565b60405161067491906138a1565b60405180910390f35b34801561068957600080fd5b506106a4600480360381019061069f91906142dd565b61151c565b6040516106b191906138a1565b60405180910390f35b3480156106c657600080fd5b506106e160048036038101906106dc9190613c6b565b611586565b005b3480156106ef57600080fd5b5061070a60048036038101906107059190614381565b61167d565b60405161071791906138a1565b60405180910390f35b34801561072c57600080fd5b5061074760048036038101906107429190614496565b6116e5565b60405161075491906138a1565b60405180910390f35b34801561076957600080fd5b50610772611bd7565b6040516107859796959493929190614666565b60405180910390f35b34801561079a57600080fd5b506107a3611cd9565b6040516107b0919061470b565b60405180910390f35b3480156107c557600080fd5b506107e060048036038101906107db9190614726565b611d7f565b6040516107ed91906138a1565b60405180910390f35b34801561080257600080fd5b5061080b611d95565b60405161081891906138a1565b60405180910390f35b34801561082d57600080fd5b5061084860048036038101906108439190614795565b611da4565b6040516108559190613db2565b60405180910390f35b34801561086a57600080fd5b5061088560048036038101906108809190613c6b565b611db9565b60405161089291906138a1565b60405180910390f35b6108b560048036038101906108b091906148ba565b611df7565b005b3480156108c357600080fd5b506108de60048036038101906108d99190614034565b611f80565b6040516108eb91906138a1565b60405180910390f35b34801561090057600080fd5b50610909611fbc565b6040516109169190613c49565b60405180910390f35b34801561092b57600080fd5b50610934611ff9565b60405161094191906140fe565b60405180910390f35b34801561095657600080fd5b50610971600480360381019061096c9190613c6b565b61201d565b005b34801561097f57600080fd5b5061099a6004803603810190610995919061492e565b612114565b6040516109a791906138a1565b60405180910390f35b3480156109bc57600080fd5b506109d760048036038101906109d29190613c6b565b612130565b005b3480156109e557600080fd5b50610a0060048036038101906109fb919061496e565b612227565b604051610a0d9190613db2565b60405180910390f35b348015610a2257600080fd5b50610a3d6004803603810190610a389190613c6b565b61223c565b604051610a4a91906138a1565b60405180910390f35b348015610a5f57600080fd5b50610a6861224e565b604051610a759190614a64565b60405180910390f35b600030905090565b60008063143489d060e01b63452115d660e01b1890506000639a802a6d60e01b630342018160e01b635f398a1460e01b18189050600081837fda287a1d000000000000000000000000000000000000000000000000000000007ff2e09f740000000000000000000000000000000000000000000000000000000018181890506000837fda287a1d000000000000000000000000000000000000000000000000000000007ff2e09f740000000000000000000000000000000000000000000000000000000018189050817bffffffffffffffffffffffffffffffffffffffffffffffffffffffff1916867bffffffffffffffffffffffffffffffffffffffffffffffffffffffff19161480610bd75750807bffffffffffffffffffffffffffffffffffffffffffffffffffffffff1916867bffffffffffffffffffffffffffffffffffffffffffffffffffffffff1916145b80610c1f5750837bffffffffffffffffffffffffffffffffffffffffffffffffffffffff1916867bffffffffffffffffffffffffffffffffffffffffffffffffffffffff1916145b80610c8757507f4e2312e0000000000000000000000000000000000000000000000000000000007bffffffffffffffffffffffffffffffffffffffffffffffffffffffff1916867bffffffffffffffffffffffffffffffffffffffffffffffffffffffff1916145b80610c975750610c9686612272565b5b945050505050919050565b6000610cac6122dc565b905090565b600080610d34610d2c7fb3b3f3b703cd84ce352197dcff232b1b5d3cfb2025ce47cf04742d0651f1af888c8c8c8c604051610ced929190614aaf565b60405180910390208b80519060200120604051602001610d11959493929190614ad7565b604051602081830303815290604052805190602001206122e6565b868686612300565b9050610d878a828b8b8b8080601f016020809104026020016040519081016040528093929190818152602001838380828437600081840152601f19601f820116905080830192505050505050508a61232b565b91505098975050505050505050565b606060028054610da590614b59565b80601f0160208091040260200160405190810160405280929190818152602001828054610dd190614b59565b8015610e1e5780601f10610df357610100808354040283529160200191610e1e565b820191906000526020600020905b815481529060010190602001808311610e0157829003601f168201915b5050505050905090565b60006003600083815260200190815260200160002060000160089054906101000a900473ffffffffffffffffffffffffffffffffffffffff169050919050565b600063150b7a0260e01b9050949350505050565b600080610e8b86868686611f80565b90506000610e98826110c5565b905060046007811115610eae57610ead614194565b5b816007811115610ec157610ec0614194565b5b1480610ef1575060056007811115610edc57610edb614194565b5b816007811115610eef57610eee614194565b5b145b610f30576040517f08c379a0000000000000000000000000000000000000000000000000000000008152600401610f2790614bfc565b60405180910390fd5b60016003600084815260200190815260200160002060020160006101000a81548160ff0219169083151502179055507f712ae1383f79ac853f8d882153778e0260ef8f03b504e2866e0593e04d2b291f82604051610f8e91906138a1565b60405180910390a1610fa382888888886124b7565b610fb0828888888861259a565b610fbd82888888886126a9565b8192505050949350505050565b60006003600083815260200190815260200160002060000160009054906101000a900467ffffffffffffffff1667ffffffffffffffff169050919050565b7fb3b3f3b703cd84ce352197dcff232b1b5d3cfb2025ce47cf04742d0651f1af8881565b6000611036612704565b905090565b60008061109c6110947f150214d74d59b7d1e90c73fc22ef3d991dd0a76b046543d4d80ab92d2a50328f898960405160200161107993929190614c1c565b604051602081830303815290604052805190602001206122e6565b868686612300565b90506110b98782886040518060200160405280600081525061270e565b91505095945050505050565b6000806003600084815260200190815260200160002090508060020160009054906101000a900460ff16156110fe5760079150506111ec565b8060020160019054906101000a900460ff161561111f5760029150506111ec565b600061112a84610fca565b90506000810361116f576040517f08c379a000000000000000000000000000000000000000000000000000000000815260040161116690614c9f565b60405180910390fd5b6000611179611cd9565b65ffffffffffff16905080821061119657600093505050506111ec565b60006111a186611db9565b90508181106111b75760019450505050506111ec565b6111c08661272e565b80156111d157506111d08661275a565b5b156111e35760049450505050506111ec565b60039450505050505b919050565b60006006600084815260200190815260200160002060030160008373ffffffffffffffffffffffffffffffffffffffff1673ffffffffffffffffffffffffffffffffffffffff16815260200190815260200160002060009054906101000a900460ff16905092915050565b60008061126b86868686611f80565b90506000600781111561128157611280614194565b5b61128a826110c5565b600781111561129c5761129b614194565b5b146112dc576040517f08c379a00000000000000000000000000000000000000000000000000000000081526004016112d390614d0b565b60405180910390fd5b6003600082815260200190815260200160002060000160089054906101000a900473ffffffffffffffffffffffffffffffffffffffff1673ffffffffffffffffffffffffffffffffffffffff16611331612779565b73ffffffffffffffffffffffffffffffffffffffff1614611387576040517f08c379a000000000000000000000000000000000000000000000000000000000815260040161137e90614d9d565b60405180910390fd5b61139386868686612781565b915050949350505050565b60607f000000000000000000000000000000000000000000000000000000000000000073ffffffffffffffffffffffffffffffffffffffff16634bf5d7e96040518163ffffffff1660e01b8152600401600060405180830381865afa92505050801561142d57506040513d6000823e3d601f19601f8201168201806040525081019061142a9190614e2d565b60015b61146e576040518060400160405280601d81526020017f6d6f64653d626c6f636b6e756d6265722666726f6d3d64656661756c740000008152509050611473565b809150505b90565b600080600080600660008681526020019081526020016000209050806000015481600101548260020154935093509350509193909250565b60606040518060400160405280600181526020017f3100000000000000000000000000000000000000000000000000000000000000815250905090565b6000806114f6612779565b90506115138482856040518060200160405280600081525061270e565b91505092915050565b600080611527612779565b905061157a87828888888080601f016020809104026020016040519081016040528093929190818152602001838380828437600081840152601f19601f820116905080830192505050505050508761232b565b91505095945050505050565b61158e610a7e565b73ffffffffffffffffffffffffffffffffffffffff166115ac612779565b73ffffffffffffffffffffffffffffffffffffffff1614611602576040517f08c379a00000000000000000000000000000000000000000000000000000000081526004016115f990614ec2565b60405180910390fd5b3073ffffffffffffffffffffffffffffffffffffffff16611621610a7e565b73ffffffffffffffffffffffffffffffffffffffff16146116715760006116466128db565b604051611654929190614aaf565b604051809103902090505b8061166a60046128e8565b0361165f57505b61167a816129c4565b50565b600080611688612779565b90506116da86828787878080601f016020809104026020016040519081016040528093929190818152602001838380828437600081840152601f19601f8201169050808301925050505050505061270e565b915050949350505050565b6000806116f0612779565b90506116fc8184612a09565b61173b576040517f08c379a000000000000000000000000000000000000000000000000000000000815260040161173290614f2e565b60405180910390fd5b6000611745611cd9565b65ffffffffffff169050611757611d95565b61176d836001846117689190614f7d565b612114565b10156117ae576040517f08c379a00000000000000000000000000000000000000000000000000000000081526004016117a590615023565b60405180910390fd5b60006117c38888888880519060200120611f80565b90508651885114611809576040517f08c379a0000000000000000000000000000000000000000000000000000000008152600401611800906150b5565b60405180910390fd5b855188511461184d576040517f08c379a0000000000000000000000000000000000000000000000000000000008152600401611844906150b5565b60405180910390fd5b6000885111611891576040517f08c379a000000000000000000000000000000000000000000000000000000000815260040161188890615121565b60405180910390fd5b60006003600083815260200190815260200160002060000160009054906101000a900467ffffffffffffffff1667ffffffffffffffff1614611908576040517f08c379a00000000000000000000000000000000000000000000000000000000081526004016118ff906151b3565b60405180910390fd5b600061191261102c565b8361191d91906151d3565b90506000611929610ca2565b8261193491906151d3565b90506040518060e0016040528061194a84612b5b565b67ffffffffffffffff1681526020018673ffffffffffffffffffffffffffffffffffffffff168152602001600060e01b7bffffffffffffffffffffffffffffffffffffffffffffffffffffffff191681526020016119a783612b5b565b67ffffffffffffffff168152602001600060401b67ffffffffffffffff19168152602001600015158152602001600015158152506003600085815260200190815260200160002060008201518160000160006101000a81548167ffffffffffffffff021916908367ffffffffffffffff16021790555060208201518160000160086101000a81548173ffffffffffffffffffffffffffffffffffffffff021916908373ffffffffffffffffffffffffffffffffffffffff160217905550604082015181600001601c6101000a81548163ffffffff021916908360e01c021790555060608201518160010160006101000a81548167ffffffffffffffff021916908367ffffffffffffffff16021790555060808201518160010160086101000a81548177ffffffffffffffffffffffffffffffffffffffffffffffff021916908360401c021790555060a08201518160020160006101000a81548160ff02191690831515021790555060c08201518160020160016101000a81548160ff0219169083151502179055509050507f7d84a6263ae0d98d3329bd7b46bb4e8d6f98cd35a7adb45c274c8b7fd5ebd5e083868c8c8e5167ffffffffffffffff811115611b7257611b7161399c565b5b604051908082528060200260200182016040528015611ba557816020015b6060815260200190600190039081611b905790505b508d88888f604051611bbf999897969594939291906154e8565b60405180910390a18295505050505050949350505050565b600060608060008060006060611c1760007f0000000000000000000000000000000000000000000000000000000000000000612bb290919063ffffffff16565b611c4b60017f0000000000000000000000000000000000000000000000000000000000000000612bb290919063ffffffff16565b46306000801b600067ffffffffffffffff811115611c6c57611c6b61399c565b5b604051908082528060200260200182016040528015611c9a5781602001602082028036833780820191505090505b507f0f00000000000000000000000000000000000000000000000000000000000000959493929190965096509650965096509650965090919293949596565b60007f000000000000000000000000000000000000000000000000000000000000000073ffffffffffffffffffffffffffffffffffffffff166391ddadf46040518163ffffffff1660e01b8152600401602060405180830381865afa925050508015611d6357506040513d601f19601f82011682018060405250810190611d6091906155c4565b60015b611d7757611d7043612c62565b9050611d7c565b809150505b90565b6000611d8c848484612cb7565b90509392505050565b6000611d9f612d5e565b905090565b600063bc197c8160e01b905095945050505050565b60006003600083815260200190815260200160002060010160009054906101000a900467ffffffffffffffff1667ffffffffffffffff169050919050565b611dff610a7e565b73ffffffffffffffffffffffffffffffffffffffff16611e1d612779565b73ffffffffffffffffffffffffffffffffffffffff1614611e73576040517f08c379a0000000000000000000000000000000000000000000000000000000008152600401611e6a90614ec2565b60405180910390fd5b3073ffffffffffffffffffffffffffffffffffffffff16611e92610a7e565b73ffffffffffffffffffffffffffffffffffffffff1614611ee2576000611eb76128db565b604051611ec5929190614aaf565b604051809103902090505b80611edb60046128e8565b03611ed057505b6000808573ffffffffffffffffffffffffffffffffffffffff16858585604051611f0d929190614aaf565b60006040518083038185875af1925050503d8060008114611f4a576040519150601f19603f3d011682016040523d82523d6000602084013e611f4f565b606091505b5091509150611f778282604051806060016040528060288152602001615e7060289139612d68565b50505050505050565b600084848484604051602001611f9994939291906155f1565b6040516020818303038152906040528051906020012060001c9050949350505050565b60606040518060400160405280602081526020017f737570706f72743d627261766f2671756f72756d3d666f722c6162737461696e815250905090565b7f150214d74d59b7d1e90c73fc22ef3d991dd0a76b046543d4d80ab92d2a50328f81565b612025610a7e565b73ffffffffffffffffffffffffffffffffffffffff16612043612779565b73ffffffffffffffffffffffffffffffffffffffff1614612099576040517f08c379a000000000000000000000000000000000000000000000000000000000815260040161209090614ec2565b60405180910390fd5b3073ffffffffffffffffffffffffffffffffffffffff166120b8610a7e565b73ffffffffffffffffffffffffffffffffffffffff16146121085760006120dd6128db565b6040516120eb929190614aaf565b604051809103902090505b8061210160046128e8565b036120f657505b61211181612d8a565b50565b60006121288383612123612e12565b612cb7565b905092915050565b612138610a7e565b73ffffffffffffffffffffffffffffffffffffffff16612156612779565b73ffffffffffffffffffffffffffffffffffffffff16146121ac576040517f08c379a00000000000000000000000000000000000000000000000000000000081526004016121a390614ec2565b60405180910390fd5b3073ffffffffffffffffffffffffffffffffffffffff166121cb610a7e565b73ffffffffffffffffffffffffffffffffffffffff161461221b5760006121f06128db565b6040516121fe929190614aaf565b604051809103902090505b8061221460046128e8565b0361220957505b61222481612e29565b50565b600063f23a6e6160e01b905095945050505050565b6000678ac7230489e800009050919050565b7f000000000000000000000000000000000000000000000000000000000000000081565b60007f01ffc9a7000000000000000000000000000000000000000000000000000000007bffffffffffffffffffffffffffffffffffffffffffffffffffffffff1916827bffffffffffffffffffffffffffffffffffffffffffffffffffffffff1916149050919050565b6000600854905090565b60006122f96122f3612e6e565b83612f25565b9050919050565b600080600061231187878787612f66565b9150915061231e81613048565b8192505050949350505050565b6000806003600088815260200190815260200160002090506001600781111561235757612356614194565b5b612360886110c5565b600781111561237257612371614194565b5b146123b2576040517f08c379a00000000000000000000000000000000000000000000000000000000081526004016123a9906156bd565b60405180910390fd5b60006123e1878360000160009054906101000a900467ffffffffffffffff1667ffffffffffffffff1686612cb7565b90506123f088888884886131ae565b6000845103612452578673ffffffffffffffffffffffffffffffffffffffff167fb8e138887d0aa13bab447e82de9d5c1777041ecd21ca36ba824ff1e6c07ddda48988848960405161244594939291906156dd565b60405180910390a26124a9565b8673ffffffffffffffffffffffffffffffffffffffff167fe2babfbac5889a709b63bb7f598b324e08bc5a4fb9ec647fb3cbc9ec07eb871289888489896040516124a0959493929190615773565b60405180910390a25b809250505095945050505050565b3073ffffffffffffffffffffffffffffffffffffffff166124d6610a7e565b73ffffffffffffffffffffffffffffffffffffffff16146125935760005b8451811015612591573073ffffffffffffffffffffffffffffffffffffffff16858281518110612527576125266157d4565b5b602002602001015173ffffffffffffffffffffffffffffffffffffffff16036125805761257f8382815181106125605761255f6157d4565b5b60200260200101518051906020012060046131c290919063ffffffff16565b5b8061258a90615803565b90506124f4565b505b5050505050565b6000604051806060016040528060278152602001615e9860279139905060005b85518110156126a0576000808783815181106125d9576125d86157d4565b5b602002602001015173ffffffffffffffffffffffffffffffffffffffff1687848151811061260a576126096157d4565b5b6020026020010151878581518110612625576126246157d4565b5b602002602001015160405161263a919061587c565b60006040518083038185875af1925050503d8060008114612677576040519150601f19603f3d011682016040523d82523d6000602084013e61267c565b606091505b509150915061268c828286612d68565b5050508061269990615803565b90506125ba565b50505050505050565b3073ffffffffffffffffffffffffffffffffffffffff166126c8610a7e565b73ffffffffffffffffffffffffffffffffffffffff16146126fd576126ed600461323e565b6126fc576126fb6004613273565b5b5b5050505050565b6000600754905090565b60006127248585858561271f612e12565b61232b565b9050949350505050565b60008061273a83611476565b5050905061274f61274a84610fca565b61223c565b811015915050919050565b600080600061276884611476565b509150915080821192505050919050565b600033905090565b60008061279086868686611f80565b9050600061279d826110c5565b9050600260078111156127b3576127b2614194565b5b8160078111156127c6576127c5614194565b5b141580156127f95750600660078111156127e3576127e2614194565b5b8160078111156127f6576127f5614194565b5b14155b8015612829575060078081111561281357612812614194565b5b81600781111561282657612825614194565b5b14155b612868576040517f08c379a000000000000000000000000000000000000000000000000000000000815260040161285f906158df565b60405180910390fd5b60016003600084815260200190815260200160002060020160016101000a81548160ff0219169083151502179055507f789cf55be980739dad1d0699b93b58e806b51c9d96619bfa8fe0a28abaa7b30c826040516128c691906138a1565b60405180910390a18192505050949350505050565b3660008036915091509091565b60006128f38261323e565b1561292a576040517f3db2a12a00000000000000000000000000000000000000000000000000000000815260040160405180910390fd5b60008260000160009054906101000a9004600f0b905082600101600082600f0b600f0b815260200190815260200160002054915082600101600082600f0b600f0b815260200190815260200160002060009055600181018360000160006101000a8154816fffffffffffffffffffffffffffffffff0219169083600f0b6fffffffffffffffffffffffffffffffff16021790555050919050565b7fc565b045403dc03c2eea82b81a0465edad9e2e7fc4d97e11421c209da93d7a93600754826040516129f79291906158ff565b60405180910390a18060078190555050565b600080825190506034811015612a23576001915050612b55565b60006014820384015190507f2370726f706f7365723d3078000000000000000000000000000000000000000073ffffffffffffffffffffffffffffffffffffffff19168173ffffffffffffffffffffffffffffffffffffffff191614612a8e57600192505050612b55565b600080602884612a9e9190614f7d565b90505b83811015612b1f57600080612ad2888481518110612ac257612ac16157d4565b5b602001015160f81c60f81b6132f4565b9150915081612aea5760019650505050505050612b55565b8060ff1660048573ffffffffffffffffffffffffffffffffffffffff16901b179350505080612b1890615803565b9050612aa1565b508573ffffffffffffffffffffffffffffffffffffffff168173ffffffffffffffffffffffffffffffffffffffff161493505050505b92915050565b600067ffffffffffffffff8016821115612baa576040517f08c379a0000000000000000000000000000000000000000000000000000000008152600401612ba19061599a565b60405180910390fd5b819050919050565b606060ff60001b8314612bcf57612bc88361338e565b9050612c5c565b818054612bdb90614b59565b80601f0160208091040260200160405190810160405280929190818152602001828054612c0790614b59565b8015612c545780601f10612c2957610100808354040283529160200191612c54565b820191906000526020600020905b815481529060010190602001808311612c3757829003601f168201915b505050505090505b92915050565b600065ffffffffffff8016821115612caf576040517f08c379a0000000000000000000000000000000000000000000000000000000008152600401612ca690615a2c565b60405180910390fd5b819050919050565b60007f000000000000000000000000000000000000000000000000000000000000000073ffffffffffffffffffffffffffffffffffffffff16633a46b1a885856040518363ffffffff1660e01b8152600401612d14929190615a4c565b602060405180830381865afa158015612d31573d6000803e3d6000fd5b505050506040513d601f19601f82011682018060405250810190612d559190615a8a565b90509392505050565b6000600954905090565b60608315612d7857829050612d83565b612d828383613402565b5b9392505050565b60008111612dcd576040517f08c379a0000000000000000000000000000000000000000000000000000000008152600401612dc490615b29565b60405180910390fd5b7f7e3f7f0708a84de9203036abaa450dccc85ad5ff52f78c170f3edb55cf5e882860085482604051612e009291906158ff565b60405180910390a18060088190555050565b606060405180602001604052806000815250905090565b7fccb45da8d5717e6c4544694297c4ba5cf151d455c9bb0ed4fc7a38411bc0546160095482604051612e5c9291906158ff565b60405180910390a18060098190555050565b60007f000000000000000000000000000000000000000000000000000000000000000073ffffffffffffffffffffffffffffffffffffffff163073ffffffffffffffffffffffffffffffffffffffff16148015612eea57507f000000000000000000000000000000000000000000000000000000000000000046145b15612f17577f00000000000000000000000000000000000000000000000000000000000000009050612f22565b612f1f613452565b90505b90565b60006040517f190100000000000000000000000000000000000000000000000000000000000081528360028201528260228201526042812091505092915050565b6000807f7fffffffffffffffffffffffffffffff5d576e7357a4501ddfe92f46681b20a08360001c1115612fa157600060039150915061303f565b600060018787878760405160008152602001604052604051612fc69493929190615b49565b6020604051602081039080840390855afa158015612fe8573d6000803e3d6000fd5b505050602060405103519050600073ffffffffffffffffffffffffffffffffffffffff168173ffffffffffffffffffffffffffffffffffffffff16036130365760006001925092505061303f565b80600092509250505b94509492505050565b6000600481111561305c5761305b614194565b5b81600481111561306f5761306e614194565b5b03156131ab576001600481111561308957613088614194565b5b81600481111561309c5761309b614194565b5b036130dc576040517f08c379a00000000000000000000000000000000000000000000000000000000081526004016130d390615bda565b60405180910390fd5b600260048111156130f0576130ef614194565b5b81600481111561310357613102614194565b5b03613143576040517f08c379a000000000000000000000000000000000000000000000000000000000815260040161313a90615c46565b60405180910390fd5b6003600481111561315757613156614194565b5b81600481111561316a57613169614194565b5b036131aa576040517f08c379a00000000000000000000000000000000000000000000000000000000081526004016131a190615cd8565b60405180910390fd5b5b50565b6131bb85858585856134e8565b5050505050565b60008260000160109054906101000a9004600f0b90508183600101600083600f0b600f0b815260200190815260200160002081905550600181018360000160106101000a8154816fffffffffffffffffffffffffffffffff0219169083600f0b6fffffffffffffffffffffffffffffffff160217905550505050565b60008160000160009054906101000a9004600f0b600f0b8260000160109054906101000a9004600f0b600f0b13159050919050565b60008160000160006101000a8154816fffffffffffffffffffffffffffffffff0219169083600f0b6fffffffffffffffffffffffffffffffff16021790555060008160000160106101000a8154816fffffffffffffffffffffffffffffffff0219169083600f0b6fffffffffffffffffffffffffffffffff16021790555050565b60008060008360f81c90508060ff16602f1080156133155750603a8160ff16105b1561332a576001603082039250925050613389565b8060ff166040108015613340575060478160ff16105b15613355576001603782039250925050613389565b8060ff16606010801561336b575060678160ff16105b15613380576001605782039250925050613389565b60008092509250505b915091565b6060600061339b836136ec565b90506000602067ffffffffffffffff8111156133ba576133b961399c565b5b6040519080825280601f01601f1916602001820160405280156133ec5781602001600182028036833780820191505090505b5090508181528360208201528092505050919050565b6000825111156134155781518083602001fd5b806040517f08c379a00000000000000000000000000000000000000000000000000000000081526004016134499190613c49565b60405180910390fd5b60007f8b73c3c69bb8fe3d512ecc4cf759cc79239f7b179b0ffacaa9a75d522b39400f7f00000000000000000000000000000000000000000000000000000000000000007f000000000000000000000000000000000000000000000000000000000000000046306040516020016134cd959493929190615cf8565b60405160208183030381529060405280519060200120905090565b60006006600087815260200190815260200160002090508060030160008673ffffffffffffffffffffffffffffffffffffffff1673ffffffffffffffffffffffffffffffffffffffff16815260200190815260200160002060009054906101000a900460ff161561358e576040517f08c379a000000000000000000000000000000000000000000000000000000000815260040161358590615dbd565b60405180910390fd5b60018160030160008773ffffffffffffffffffffffffffffffffffffffff1673ffffffffffffffffffffffffffffffffffffffff16815260200190815260200160002060006101000a81548160ff021916908315150217905550600060028111156135fc576135fb614194565b5b60ff168460ff1603613628578281600001600082825461361c91906151d3565b925050819055506136e4565b6001600281111561363c5761363b614194565b5b60ff168460ff1603613668578281600101600082825461365c91906151d3565b925050819055506136e3565b60028081111561367b5761367a614194565b5b60ff168460ff16036136a7578281600201600082825461369b91906151d3565b925050819055506136e2565b6040517f08c379a00000000000000000000000000000000000000000000000000000000081526004016136d990615e4f565b60405180910390fd5b5b5b505050505050565b60008060ff8360001c169050601f811115613733576040517fb3512b0c00000000000000000000000000000000000000000000000000000000815260040160405180910390fd5b80915050919050565b600082825260208201905092915050565b7f476f7665726e6f723a206d7573742073656e6420746f206578656375746f7200600082015250565b6000613783601f8361373c565b915061378e8261374d565b602082019050919050565b600060208201905081810360008301526137b281613776565b9050919050565b6000604051905090565b600080fd5b600080fd5b60007fffffffff0000000000000000000000000000000000000000000000000000000082169050919050565b613802816137cd565b811461380d57600080fd5b50565b60008135905061381f816137f9565b92915050565b60006020828403121561383b5761383a6137c3565b5b600061384984828501613810565b91505092915050565b60008115159050919050565b61386781613852565b82525050565b6000602082019050613882600083018461385e565b92915050565b6000819050919050565b61389b81613888565b82525050565b60006020820190506138b66000830184613892565b92915050565b6138c581613888565b81146138d057600080fd5b50565b6000813590506138e2816138bc565b92915050565b600060ff82169050919050565b6138fe816138e8565b811461390957600080fd5b50565b60008135905061391b816138f5565b92915050565b600080fd5b600080fd5b600080fd5b60008083601f84011261394657613945613921565b5b8235905067ffffffffffffffff81111561396357613962613926565b5b60208301915083600182028301111561397f5761397e61392b565b5b9250929050565b600080fd5b6000601f19601f8301169050919050565b7f4e487b7100000000000000000000000000000000000000000000000000000000600052604160045260246000fd5b6139d48261398b565b810181811067ffffffffffffffff821117156139f3576139f261399c565b5b80604052505050565b6000613a066137b9565b9050613a1282826139cb565b919050565b600067ffffffffffffffff821115613a3257613a3161399c565b5b613a3b8261398b565b9050602081019050919050565b82818337600083830152505050565b6000613a6a613a6584613a17565b6139fc565b905082815260208101848484011115613a8657613a85613986565b5b613a91848285613a48565b509392505050565b600082601f830112613aae57613aad613921565b5b8135613abe848260208601613a57565b91505092915050565b6000819050919050565b613ada81613ac7565b8114613ae557600080fd5b50565b600081359050613af781613ad1565b92915050565b60008060008060008060008060e0898b031215613b1d57613b1c6137c3565b5b6000613b2b8b828c016138d3565b9850506020613b3c8b828c0161390c565b975050604089013567ffffffffffffffff811115613b5d57613b5c6137c8565b5b613b698b828c01613930565b9650965050606089013567ffffffffffffffff811115613b8c57613b8b6137c8565b5b613b988b828c01613a99565b9450506080613ba98b828c0161390c565b93505060a0613bba8b828c01613ae8565b92505060c0613bcb8b828c01613ae8565b9150509295985092959890939650565b600081519050919050565b60005b83811015613c04578082015181840152602081019050613be9565b60008484015250505050565b6000613c1b82613bdb565b613c25818561373c565b9350613c35818560208601613be6565b613c3e8161398b565b840191505092915050565b60006020820190508181036000830152613c638184613c10565b905092915050565b600060208284031215613c8157613c806137c3565b5b6000613c8f848285016138d3565b91505092915050565b600073ffffffffffffffffffffffffffffffffffffffff82169050919050565b6000613cc382613c98565b9050919050565b613cd381613cb8565b82525050565b6000602082019050613cee6000830184613cca565b92915050565b613cfd81613cb8565b8114613d0857600080fd5b50565b600081359050613d1a81613cf4565b92915050565b60008060008060808587031215613d3a57613d396137c3565b5b6000613d4887828801613d0b565b9450506020613d5987828801613d0b565b9350506040613d6a878288016138d3565b925050606085013567ffffffffffffffff811115613d8b57613d8a6137c8565b5b613d9787828801613a99565b91505092959194509250565b613dac816137cd565b82525050565b6000602082019050613dc76000830184613da3565b92915050565b600067ffffffffffffffff821115613de857613de761399c565b5b602082029050602081019050919050565b6000613e0c613e0784613dcd565b6139fc565b90508083825260208201905060208402830185811115613e2f57613e2e61392b565b5b835b81811015613e585780613e448882613d0b565b845260208401935050602081019050613e31565b5050509392505050565b600082601f830112613e7757613e76613921565b5b8135613e87848260208601613df9565b91505092915050565b600067ffffffffffffffff821115613eab57613eaa61399c565b5b602082029050602081019050919050565b6000613ecf613eca84613e90565b6139fc565b90508083825260208201905060208402830185811115613ef257613ef161392b565b5b835b81811015613f1b5780613f0788826138d3565b845260208401935050602081019050613ef4565b5050509392505050565b600082601f830112613f3a57613f39613921565b5b8135613f4a848260208601613ebc565b91505092915050565b600067ffffffffffffffff821115613f6e57613f6d61399c565b5b602082029050602081019050919050565b6000613f92613f8d84613f53565b6139fc565b90508083825260208201905060208402830185811115613fb557613fb461392b565b5b835b81811015613ffc57803567ffffffffffffffff811115613fda57613fd9613921565b5b808601613fe78982613a99565b85526020850194505050602081019050613fb7565b5050509392505050565b600082601f83011261401b5761401a613921565b5b813561402b848260208601613f7f565b91505092915050565b6000806000806080858703121561404e5761404d6137c3565b5b600085013567ffffffffffffffff81111561406c5761406b6137c8565b5b61407887828801613e62565b945050602085013567ffffffffffffffff811115614099576140986137c8565b5b6140a587828801613f25565b935050604085013567ffffffffffffffff8111156140c6576140c56137c8565b5b6140d287828801614006565b92505060606140e387828801613ae8565b91505092959194509250565b6140f881613ac7565b82525050565b600060208201905061411360008301846140ef565b92915050565b600080600080600060a08688031215614135576141346137c3565b5b6000614143888289016138d3565b95505060206141548882890161390c565b94505060406141658882890161390c565b935050606061417688828901613ae8565b925050608061418788828901613ae8565b9150509295509295909350565b7f4e487b7100000000000000000000000000000000000000000000000000000000600052602160045260246000fd5b600881106141d4576141d3614194565b5b50565b60008190506141e5826141c3565b919050565b60006141f5826141d7565b9050919050565b614205816141ea565b82525050565b600060208201905061422060008301846141fc565b92915050565b6000806040838503121561423d5761423c6137c3565b5b600061424b858286016138d3565b925050602061425c85828601613d0b565b9150509250929050565b600060608201905061427b6000830186613892565b6142886020830185613892565b6142956040830184613892565b949350505050565b600080604083850312156142b4576142b36137c3565b5b60006142c2858286016138d3565b92505060206142d38582860161390c565b9150509250929050565b6000806000806000608086880312156142f9576142f86137c3565b5b6000614307888289016138d3565b95505060206143188882890161390c565b945050604086013567ffffffffffffffff811115614339576143386137c8565b5b61434588828901613930565b9350935050606086013567ffffffffffffffff811115614368576143676137c8565b5b61437488828901613a99565b9150509295509295909350565b6000806000806060858703121561439b5761439a6137c3565b5b60006143a9878288016138d3565b94505060206143ba8782880161390c565b935050604085013567ffffffffffffffff8111156143db576143da6137c8565b5b6143e787828801613930565b925092505092959194509250565b600067ffffffffffffffff8211156144105761440f61399c565b5b6144198261398b565b9050602081019050919050565b6000614439614434846143f5565b6139fc565b90508281526020810184848401111561445557614454613986565b5b614460848285613a48565b509392505050565b600082601f83011261447d5761447c613921565b5b813561448d848260208601614426565b91505092915050565b600080600080608085870312156144b0576144af6137c3565b5b600085013567ffffffffffffffff8111156144ce576144cd6137c8565b5b6144da87828801613e62565b945050602085013567ffffffffffffffff8111156144fb576144fa6137c8565b5b61450787828801613f25565b935050604085013567ffffffffffffffff811115614528576145276137c8565b5b61453487828801614006565b925050606085013567ffffffffffffffff811115614555576145546137c8565b5b61456187828801614468565b91505092959194509250565b60007fff0000000000000000000000000000000000000000000000000000000000000082169050919050565b6145a28161456d565b82525050565b600081519050919050565b600082825260208201905092915050565b6000819050602082019050919050565b6145dd81613888565b82525050565b60006145ef83836145d4565b60208301905092915050565b6000602082019050919050565b6000614613826145a8565b61461d81856145b3565b9350614628836145c4565b8060005b8381101561465957815161464088826145e3565b975061464b836145fb565b92505060018101905061462c565b5085935050505092915050565b600060e08201905061467b600083018a614599565b818103602083015261468d8189613c10565b905081810360408301526146a18188613c10565b90506146b06060830187613892565b6146bd6080830186613cca565b6146ca60a08301856140ef565b81810360c08301526146dc8184614608565b905098975050505050505050565b600065ffffffffffff82169050919050565b614705816146ea565b82525050565b600060208201905061472060008301846146fc565b92915050565b60008060006060848603121561473f5761473e6137c3565b5b600061474d86828701613d0b565b935050602061475e868287016138d3565b925050604084013567ffffffffffffffff81111561477f5761477e6137c8565b5b61478b86828701613a99565b9150509250925092565b600080600080600060a086880312156147b1576147b06137c3565b5b60006147bf88828901613d0b565b95505060206147d088828901613d0b565b945050604086013567ffffffffffffffff8111156147f1576147f06137c8565b5b6147fd88828901613f25565b935050606086013567ffffffffffffffff81111561481e5761481d6137c8565b5b61482a88828901613f25565b925050608086013567ffffffffffffffff81111561484b5761484a6137c8565b5b61485788828901613a99565b9150509295509295909350565b60008083601f84011261487a57614879613921565b5b8235905067ffffffffffffffff81111561489757614896613926565b5b6020830191508360018202830111156148b3576148b261392b565b5b9250929050565b600080600080606085870312156148d4576148d36137c3565b5b60006148e287828801613d0b565b94505060206148f3878288016138d3565b935050604085013567ffffffffffffffff811115614914576149136137c8565b5b61492087828801614864565b925092505092959194509250565b60008060408385031215614945576149446137c3565b5b600061495385828601613d0b565b9250506020614964858286016138d3565b9150509250929050565b600080600080600060a0868803121561498a576149896137c3565b5b600061499888828901613d0b565b95505060206149a988828901613d0b565b94505060406149ba888289016138d3565b93505060606149cb888289016138d3565b925050608086013567ffffffffffffffff8111156149ec576149eb6137c8565b5b6149f888828901613a99565b9150509295509295909350565b6000819050919050565b6000614a2a614a25614a2084613c98565b614a05565b613c98565b9050919050565b6000614a3c82614a0f565b9050919050565b6000614a4e82614a31565b9050919050565b614a5e81614a43565b82525050565b6000602082019050614a796000830184614a55565b92915050565b600081905092915050565b6000614a968385614a7f565b9350614aa3838584613a48565b82840190509392505050565b6000614abc828486614a8a565b91508190509392505050565b614ad1816138e8565b82525050565b600060a082019050614aec60008301886140ef565b614af96020830187613892565b614b066040830186614ac8565b614b1360608301856140ef565b614b2060808301846140ef565b9695505050505050565b7f4e487b7100000000000000000000000000000000000000000000000000000000600052602260045260246000fd5b60006002820490506001821680614b7157607f821691505b602082108103614b8457614b83614b2a565b5b50919050565b7f476f7665726e6f723a2070726f706f73616c206e6f742073756363657373667560008201527f6c00000000000000000000000000000000000000000000000000000000000000602082015250565b6000614be660218361373c565b9150614bf182614b8a565b604082019050919050565b60006020820190508181036000830152614c1581614bd9565b9050919050565b6000606082019050614c3160008301866140ef565b614c3e6020830185613892565b614c4b6040830184614ac8565b949350505050565b7f476f7665726e6f723a20756e6b6e6f776e2070726f706f73616c206964000000600082015250565b6000614c89601d8361373c565b9150614c9482614c53565b602082019050919050565b60006020820190508181036000830152614cb881614c7c565b9050919050565b7f476f7665726e6f723a20746f6f206c61746520746f2063616e63656c00000000600082015250565b6000614cf5601c8361373c565b9150614d0082614cbf565b602082019050919050565b60006020820190508181036000830152614d2481614ce8565b9050919050565b7f476f7665726e6f723a206f6e6c792070726f706f7365722063616e2063616e6360008201527f656c000000000000000000000000000000000000000000000000000000000000602082015250565b6000614d8760228361373c565b9150614d9282614d2b565b604082019050919050565b60006020820190508181036000830152614db681614d7a565b9050919050565b6000614dd0614dcb846143f5565b6139fc565b905082815260208101848484011115614dec57614deb613986565b5b614df7848285613be6565b509392505050565b600082601f830112614e1457614e13613921565b5b8151614e24848260208601614dbd565b91505092915050565b600060208284031215614e4357614e426137c3565b5b600082015167ffffffffffffffff811115614e6157614e606137c8565b5b614e6d84828501614dff565b91505092915050565b7f476f7665726e6f723a206f6e6c79476f7665726e616e63650000000000000000600082015250565b6000614eac60188361373c565b9150614eb782614e76565b602082019050919050565b60006020820190508181036000830152614edb81614e9f565b9050919050565b7f476f7665726e6f723a2070726f706f7365722072657374726963746564000000600082015250565b6000614f18601d8361373c565b9150614f2382614ee2565b602082019050919050565b60006020820190508181036000830152614f4781614f0b565b9050919050565b7f4e487b7100000000000000000000000000000000000000000000000000000000600052601160045260246000fd5b6000614f8882613888565b9150614f9383613888565b9250828203905081811115614fab57614faa614f4e565b5b92915050565b7f476f7665726e6f723a2070726f706f73657220766f7465732062656c6f77207060008201527f726f706f73616c207468726573686f6c64000000000000000000000000000000602082015250565b600061500d60318361373c565b915061501882614fb1565b604082019050919050565b6000602082019050818103600083015261503c81615000565b9050919050565b7f476f7665726e6f723a20696e76616c69642070726f706f73616c206c656e677460008201527f6800000000000000000000000000000000000000000000000000000000000000602082015250565b600061509f60218361373c565b91506150aa82615043565b604082019050919050565b600060208201905081810360008301526150ce81615092565b9050919050565b7f476f7665726e6f723a20656d7074792070726f706f73616c0000000000000000600082015250565b600061510b60188361373c565b9150615116826150d5565b602082019050919050565b6000602082019050818103600083015261513a816150fe565b9050919050565b7f476f7665726e6f723a2070726f706f73616c20616c726561647920657869737460008201527f7300000000000000000000000000000000000000000000000000000000000000602082015250565b600061519d60218361373c565b91506151a882615141565b604082019050919050565b600060208201905081810360008301526151cc81615190565b9050919050565b60006151de82613888565b91506151e983613888565b925082820190508082111561520157615200614f4e565b5b92915050565b600081519050919050565b600082825260208201905092915050565b6000819050602082019050919050565b61523c81613cb8565b82525050565b600061524e8383615233565b60208301905092915050565b6000602082019050919050565b600061527282615207565b61527c8185615212565b935061528783615223565b8060005b838110156152b857815161529f8882615242565b97506152aa8361525a565b92505060018101905061528b565b5085935050505092915050565b600081519050919050565b600082825260208201905092915050565b6000819050602082019050919050565b600082825260208201905092915050565b600061530d82613bdb565b61531781856152f1565b9350615327818560208601613be6565b6153308161398b565b840191505092915050565b60006153478383615302565b905092915050565b6000602082019050919050565b6000615367826152c5565b61537181856152d0565b935083602082028501615383856152e1565b8060005b858110156153bf57848403895281516153a0858261533b565b94506153ab8361534f565b925060208a01995050600181019050615387565b50829750879550505050505092915050565b600081519050919050565b600082825260208201905092915050565b6000819050602082019050919050565b600081519050919050565b600082825260208201905092915050565b6000615424826153fd565b61542e8185615408565b935061543e818560208601613be6565b6154478161398b565b840191505092915050565b600061545e8383615419565b905092915050565b6000602082019050919050565b600061547e826153d1565b61548881856153dc565b93508360208202850161549a856153ed565b8060005b858110156154d657848403895281516154b78582615452565b94506154c283615466565b925060208a0199505060018101905061549e565b50829750879550505050505092915050565b6000610120820190506154fe600083018c613892565b61550b602083018b613cca565b818103604083015261551d818a615267565b905081810360608301526155318189614608565b90508181036080830152615545818861535c565b905081810360a08301526155598187615473565b905061556860c0830186613892565b61557560e0830185613892565b8181036101008301526155888184613c10565b90509a9950505050505050505050565b6155a1816146ea565b81146155ac57600080fd5b50565b6000815190506155be81615598565b92915050565b6000602082840312156155da576155d96137c3565b5b60006155e8848285016155af565b91505092915050565b6000608082019050818103600083015261560b8187615267565b9050818103602083015261561f8186614608565b905081810360408301526156338185615473565b905061564260608301846140ef565b95945050505050565b7f476f7665726e6f723a20766f7465206e6f742063757272656e746c792061637460008201527f6976650000000000000000000000000000000000000000000000000000000000602082015250565b60006156a760238361373c565b91506156b28261564b565b604082019050919050565b600060208201905081810360008301526156d68161569a565b9050919050565b60006080820190506156f26000830187613892565b6156ff6020830186614ac8565b61570c6040830185613892565b818103606083015261571e8184613c10565b905095945050505050565b600082825260208201905092915050565b6000615745826153fd565b61574f8185615729565b935061575f818560208601613be6565b6157688161398b565b840191505092915050565b600060a0820190506157886000830188613892565b6157956020830187614ac8565b6157a26040830186613892565b81810360608301526157b48185613c10565b905081810360808301526157c8818461573a565b90509695505050505050565b7f4e487b7100000000000000000000000000000000000000000000000000000000600052603260045260246000fd5b600061580e82613888565b91507fffffffffffffffffffffffffffffffffffffffffffffffffffffffffffffffff82036158405761583f614f4e565b5b600182019050919050565b6000615856826153fd565b6158608185614a7f565b9350615870818560208601613be6565b80840191505092915050565b6000615888828461584b565b915081905092915050565b7f476f7665726e6f723a2070726f706f73616c206e6f7420616374697665000000600082015250565b60006158c9601d8361373c565b91506158d482615893565b602082019050919050565b600060208201905081810360008301526158f8816158bc565b9050919050565b60006040820190506159146000830185613892565b6159216020830184613892565b9392505050565b7f53616665436173743a2076616c756520646f65736e27742066697420696e203660008201527f3420626974730000000000000000000000000000000000000000000000000000602082015250565b600061598460268361373c565b915061598f82615928565b604082019050919050565b600060208201905081810360008301526159b381615977565b9050919050565b7f53616665436173743a2076616c756520646f65736e27742066697420696e203460008201527f3820626974730000000000000000000000000000000000000000000000000000602082015250565b6000615a1660268361373c565b9150615a21826159ba565b604082019050919050565b60006020820190508181036000830152615a4581615a09565b9050919050565b6000604082019050615a616000830185613cca565b615a6e6020830184613892565b9392505050565b600081519050615a84816138bc565b92915050565b600060208284031215615aa057615a9f6137c3565b5b6000615aae84828501615a75565b91505092915050565b7f476f7665726e6f7253657474696e67733a20766f74696e6720706572696f642060008201527f746f6f206c6f7700000000000000000000000000000000000000000000000000602082015250565b6000615b1360278361373c565b9150615b1e82615ab7565b604082019050919050565b60006020820190508181036000830152615b4281615b06565b9050919050565b6000608082019050615b5e60008301876140ef565b615b6b6020830186614ac8565b615b7860408301856140ef565b615b8560608301846140ef565b95945050505050565b7f45434453413a20696e76616c6964207369676e61747572650000000000000000600082015250565b6000615bc460188361373c565b9150615bcf82615b8e565b602082019050919050565b60006020820190508181036000830152615bf381615bb7565b9050919050565b7f45434453413a20696e76616c6964207369676e6174757265206c656e67746800600082015250565b6000615c30601f8361373c565b9150615c3b82615bfa565b602082019050919050565b60006020820190508181036000830152615c5f81615c23565b9050919050565b7f45434453413a20696e76616c6964207369676e6174757265202773272076616c60008201527f7565000000000000000000000000000000000000000000000000000000000000602082015250565b6000615cc260228361373c565b9150615ccd82615c66565b604082019050919050565b60006020820190508181036000830152615cf181615cb5565b9050919050565b600060a082019050615d0d60008301886140ef565b615d1a60208301876140ef565b615d2760408301866140ef565b615d346060830185613892565b615d416080830184613cca565b9695505050505050565b7f476f7665726e6f72566f74696e6753696d706c653a20766f746520616c72656160008201527f6479206361737400000000000000000000000000000000000000000000000000602082015250565b6000615da760278361373c565b9150615db282615d4b565b604082019050919050565b60006020820190508181036000830152615dd681615d9a565b9050919050565b7f476f7665726e6f72566f74696e6753696d706c653a20696e76616c696420766160008201527f6c756520666f7220656e756d20566f7465547970650000000000000000000000602082015250565b6000615e3960358361373c565b9150615e4482615ddd565b604082019050919050565b60006020820190508181036000830152615e6881615e2c565b905091905056fe476f7665726e6f723a2072656c617920726576657274656420776974686f7574206d657373616765476f7665726e6f723a2063616c6c20726576657274656420776974686f7574206d657373616765a26469706673582212208557545166ed0420e90c7f3f22fb708f19150481ae897651d57c9059507d960564736f6c63430008140033",
  "linkReferences": {},
  "deployedLinkReferences": {}
}